{
  "_format": "hh-sol-artifact-1",
  "contractName": "WelfareFactory",
  "sourceName": "contracts/WelfareFactory.sol",
  "abi": [
    {
      "inputs": [
        {
          "internalType": "address",
          "name": "_tokenAddress",
          "type": "address"
        }
      ],
      "stateMutability": "nonpayable",
      "type": "constructor"
    },
    {
      "anonymous": false,
      "inputs": [
        {
          "indexed": true,
          "internalType": "address",
          "name": "welfareAddress",
          "type": "address"
        }
      ],
      "name": "WelfareArchived",
      "type": "event"
    },
    {
      "anonymous": false,
      "inputs": [
        {
          "indexed": true,
          "internalType": "address",
          "name": "welfareAddress",
          "type": "address"
        }
      ],
      "name": "WelfareDeployed",
      "type": "event"
    },
    {
      "inputs": [
        {
          "internalType": "uint256",
          "name": "",
          "type": "uint256"
        }
      ],
      "name": "activeWelfares",
      "outputs": [
        {
          "internalType": "address",
          "name": "",
          "type": "address"
        }
      ],
      "stateMutability": "view",
      "type": "function"
    },
    {
      "inputs": [
        {
          "internalType": "address",
          "name": "welfareAddress",
          "type": "address"
        }
      ],
      "name": "archiveWelfare",
      "outputs": [],
      "stateMutability": "nonpayable",
      "type": "function"
    },
    {
      "inputs": [
        {
          "internalType": "string",
          "name": "_name",
          "type": "string"
        },
        {
          "internalType": "string",
          "name": "_description",
          "type": "string"
        },
        {
          "internalType": "uint16",
          "name": "_maxCapacity",
          "type": "uint16"
        },
        {
          "internalType": "uint256",
          "name": "_signupStartTime",
          "type": "uint256"
        },
        {
          "internalType": "uint256",
          "name": "_signupEndTime",
          "type": "uint256"
        },
        {
          "internalType": "uint256",
          "name": "_redemptionEndTime",
          "type": "uint256"
        },
        {
          "internalType": "uint8",
          "name": "_redemptionCost",
          "type": "uint8"
        }
      ],
      "name": "createWelfare",
      "outputs": [],
      "stateMutability": "nonpayable",
      "type": "function"
    },
    {
      "inputs": [],
      "name": "getActiveWelfares",
      "outputs": [
        {
          "internalType": "address[]",
          "name": "",
          "type": "address[]"
        }
      ],
      "stateMutability": "view",
      "type": "function"
    },
    {
      "inputs": [],
      "name": "getInactiveWelfares",
      "outputs": [
        {
          "internalType": "address[]",
          "name": "",
          "type": "address[]"
        }
      ],
      "stateMutability": "view",
      "type": "function"
    },
    {
      "inputs": [
        {
          "internalType": "uint256",
          "name": "",
          "type": "uint256"
        }
      ],
      "name": "inactiveWelfares",
      "outputs": [
        {
          "internalType": "address",
          "name": "",
          "type": "address"
        }
      ],
      "stateMutability": "view",
      "type": "function"
    },
    {
      "inputs": [
        {
          "internalType": "address",
          "name": "",
          "type": "address"
        }
      ],
      "name": "isActiveWelfare",
      "outputs": [
        {
          "internalType": "bool",
          "name": "",
          "type": "bool"
        }
      ],
      "stateMutability": "view",
      "type": "function"
    },
    {
      "inputs": [],
      "name": "token",
      "outputs": [
        {
          "internalType": "contract Token",
          "name": "",
          "type": "address"
        }
      ],
      "stateMutability": "view",
      "type": "function"
    },
    {
      "inputs": [],
      "name": "treasury",
      "outputs": [
        {
          "internalType": "address",
          "name": "",
          "type": "address"
        }
      ],
      "stateMutability": "view",
      "type": "function"
    }
  ],
  "bytecode": "0x60c060405234801561001057600080fd5b50604051613fd1380380613fd1833981810160405281019061003291906101e2565b600073ffffffffffffffffffffffffffffffffffffffff168173ffffffffffffffffffffffffffffffffffffffff16036100a1576040517f08c379a00000000000000000000000000000000000000000000000000000000081526004016100989061026c565b60405180910390fd5b8073ffffffffffffffffffffffffffffffffffffffff1660a08173ffffffffffffffffffffffffffffffffffffffff168152505060a05173ffffffffffffffffffffffffffffffffffffffff166361d027b36040518163ffffffff1660e01b8152600401602060405180830381865afa158015610122573d6000803e3d6000fd5b505050506040513d601f19601f8201168201806040525081019061014691906101e2565b73ffffffffffffffffffffffffffffffffffffffff1660808173ffffffffffffffffffffffffffffffffffffffff16815250505061028c565b600080fd5b600073ffffffffffffffffffffffffffffffffffffffff82169050919050565b60006101af82610184565b9050919050565b6101bf816101a4565b81146101ca57600080fd5b50565b6000815190506101dc816101b6565b92915050565b6000602082840312156101f8576101f761017f565b5b6000610206848285016101cd565b91505092915050565b600082825260208201905092915050565b7f496e76616c696420746f6b656e20616464726573730000000000000000000000600082015250565b600061025660158361020f565b915061026182610220565b602082019050919050565b6000602082019050818103600083015261028581610249565b9050919050565b60805160a051613d196102b8600039600081816106520152610976015260006108460152613d196000f3fe608060405234801561001057600080fd5b50600436106100935760003560e01c806361d027b31161006657806361d027b31461011e57806363c987971461013c5780637a6d07cd1461015a578063e6659f7b1461018a578063fc0c546a146101ba57610093565b8063201b0c89146100985780632cee3e07146100b65780633a16a674146100d257806345245688146100ee575b600080fd5b6100a06101d8565b6040516100ad9190610b72565b60405180910390f35b6100d060048036038101906100cb9190610bca565b610266565b005b6100ec60048036038101906100e79190610d05565b610645565b005b61010860048036038101906101039190610bca565b610824565b6040516101159190610e02565b60405180910390f35b610126610844565b6040516101339190610e2c565b60405180910390f35b610144610868565b6040516101519190610b72565b60405180910390f35b610174600480360381019061016f9190610e47565b6108f6565b6040516101819190610e2c565b60405180910390f35b6101a4600480360381019061019f9190610e47565b610935565b6040516101b19190610e2c565b60405180910390f35b6101c2610974565b6040516101cf9190610ed3565b60405180910390f35b6060600180548060200260200160405190810160405280929190818152602001828054801561025c57602002820191906000526020600020905b8160009054906101000a900473ffffffffffffffffffffffffffffffffffffffff1673ffffffffffffffffffffffffffffffffffffffff1681526020019060010190808311610212575b5050505050905090565b600073ffffffffffffffffffffffffffffffffffffffff168173ffffffffffffffffffffffffffffffffffffffff16036102d5576040517f08c379a00000000000000000000000000000000000000000000000000000000081526004016102cc90610f4b565b60405180910390fd5b600260008273ffffffffffffffffffffffffffffffffffffffff1673ffffffffffffffffffffffffffffffffffffffff16815260200190815260200160002060009054906101000a900460ff16610361576040517f08c379a000000000000000000000000000000000000000000000000000000000815260040161035890610fdd565b60405180910390fd5b60008190508073ffffffffffffffffffffffffffffffffffffffff16638da5cb5b6040518163ffffffff1660e01b8152600401602060405180830381865afa1580156103b1573d6000803e3d6000fd5b505050506040513d601f19601f820116820180604052508101906103d59190611012565b73ffffffffffffffffffffffffffffffffffffffff163373ffffffffffffffffffffffffffffffffffffffff1614610442576040517f08c379a00000000000000000000000000000000000000000000000000000000081526004016104399061108b565b60405180910390fd5b6000600260008473ffffffffffffffffffffffffffffffffffffffff1673ffffffffffffffffffffffffffffffffffffffff16815260200190815260200160002060006101000a81548160ff0219169083151502179055506001829080600181540180825580915050600190039060005260206000200160009091909190916101000a81548173ffffffffffffffffffffffffffffffffffffffff021916908373ffffffffffffffffffffffffffffffffffffffff160217905550600061050883610998565b90506000600160008054905061051e91906110da565b8154811061052f5761052e61110e565b5b9060005260206000200160009054906101000a900473ffffffffffffffffffffffffffffffffffffffff166000828154811061056e5761056d61110e565b5b9060005260206000200160006101000a81548173ffffffffffffffffffffffffffffffffffffffff021916908373ffffffffffffffffffffffffffffffffffffffff16021790555060008054806105c8576105c761113d565b5b6001900381819060005260206000200160006101000a81549073ffffffffffffffffffffffffffffffffffffffff021916905590558273ffffffffffffffffffffffffffffffffffffffff167fd751296d24d3bf2a05438d908a984393c07ab530d97444ba90f8e678f3968f0860405160405180910390a2505050565b60008989898989898989897f000000000000000000000000000000000000000000000000000000000000000060405161067d90610a75565b6106909a999897969594939291906111e6565b604051809103906000f0801580156106ac573d6000803e3d6000fd5b5090506000819080600181540180825580915050600190039060005260206000200160009091909190916101000a81548173ffffffffffffffffffffffffffffffffffffffff021916908373ffffffffffffffffffffffffffffffffffffffff1602179055506001600260008373ffffffffffffffffffffffffffffffffffffffff1673ffffffffffffffffffffffffffffffffffffffff16815260200190815260200160002060006101000a81548160ff0219169083151502179055508073ffffffffffffffffffffffffffffffffffffffff1663f2fde38b336040518263ffffffff1660e01b81526004016107a39190610e2c565b600060405180830381600087803b1580156107bd57600080fd5b505af11580156107d1573d6000803e3d6000fd5b505050508073ffffffffffffffffffffffffffffffffffffffff167fe37144168c87827cb4c0fef7a0cae9eba9ff502484c289880ceed18d01f0097860405160405180910390a250505050505050505050565b60026020528060005260406000206000915054906101000a900460ff1681565b7f000000000000000000000000000000000000000000000000000000000000000081565b606060008054806020026020016040519081016040528092919081815260200182805480156108ec57602002820191906000526020600020905b8160009054906101000a900473ffffffffffffffffffffffffffffffffffffffff1673ffffffffffffffffffffffffffffffffffffffff16815260200190600101908083116108a2575b5050505050905090565b6001818154811061090657600080fd5b906000526020600020016000915054906101000a900473ffffffffffffffffffffffffffffffffffffffff1681565b6000818154811061094557600080fd5b906000526020600020016000915054906101000a900473ffffffffffffffffffffffffffffffffffffffff1681565b7f000000000000000000000000000000000000000000000000000000000000000081565b600080600090505b600080549050811015610a34578273ffffffffffffffffffffffffffffffffffffffff16600082815481106109d8576109d761110e565b5b9060005260206000200160009054906101000a900473ffffffffffffffffffffffffffffffffffffffff1673ffffffffffffffffffffffffffffffffffffffff1603610a275780915050610a70565b80806001019150506109a0565b506040517f08c379a0000000000000000000000000000000000000000000000000000000008152600401610a67906112c2565b60405180910390fd5b919050565b612a01806112e383390190565b600081519050919050565b600082825260208201905092915050565b6000819050602082019050919050565b600073ffffffffffffffffffffffffffffffffffffffff82169050919050565b6000610ad982610aae565b9050919050565b610ae981610ace565b82525050565b6000610afb8383610ae0565b60208301905092915050565b6000602082019050919050565b6000610b1f82610a82565b610b298185610a8d565b9350610b3483610a9e565b8060005b83811015610b65578151610b4c8882610aef565b9750610b5783610b07565b925050600181019050610b38565b5085935050505092915050565b60006020820190508181036000830152610b8c8184610b14565b905092915050565b600080fd5b600080fd5b610ba781610ace565b8114610bb257600080fd5b50565b600081359050610bc481610b9e565b92915050565b600060208284031215610be057610bdf610b94565b5b6000610bee84828501610bb5565b91505092915050565b600080fd5b600080fd5b600080fd5b60008083601f840112610c1c57610c1b610bf7565b5b8235905067ffffffffffffffff811115610c3957610c38610bfc565b5b602083019150836001820283011115610c5557610c54610c01565b5b9250929050565b600061ffff82169050919050565b610c7381610c5c565b8114610c7e57600080fd5b50565b600081359050610c9081610c6a565b92915050565b6000819050919050565b610ca981610c96565b8114610cb457600080fd5b50565b600081359050610cc681610ca0565b92915050565b600060ff82169050919050565b610ce281610ccc565b8114610ced57600080fd5b50565b600081359050610cff81610cd9565b92915050565b600080600080600080600080600060e08a8c031215610d2757610d26610b94565b5b60008a013567ffffffffffffffff811115610d4557610d44610b99565b5b610d518c828d01610c06565b995099505060208a013567ffffffffffffffff811115610d7457610d73610b99565b5b610d808c828d01610c06565b97509750506040610d938c828d01610c81565b9550506060610da48c828d01610cb7565b9450506080610db58c828d01610cb7565b93505060a0610dc68c828d01610cb7565b92505060c0610dd78c828d01610cf0565b9150509295985092959850929598565b60008115159050919050565b610dfc81610de7565b82525050565b6000602082019050610e176000830184610df3565b92915050565b610e2681610ace565b82525050565b6000602082019050610e416000830184610e1d565b92915050565b600060208284031215610e5d57610e5c610b94565b5b6000610e6b84828501610cb7565b91505092915050565b6000819050919050565b6000610e99610e94610e8f84610aae565b610e74565b610aae565b9050919050565b6000610eab82610e7e565b9050919050565b6000610ebd82610ea0565b9050919050565b610ecd81610eb2565b82525050565b6000602082019050610ee86000830184610ec4565b92915050565b600082825260208201905092915050565b7f496e76616c696420616464726573730000000000000000000000000000000000600082015250565b6000610f35600f83610eee565b9150610f4082610eff565b602082019050919050565b60006020820190508181036000830152610f6481610f28565b9050919050565b7f57656c66617265206e6f7420666f756e64206f7220616c726561647920696e6160008201527f6374697665000000000000000000000000000000000000000000000000000000602082015250565b6000610fc7602583610eee565b9150610fd282610f6b565b604082019050919050565b60006020820190508181036000830152610ff681610fba565b9050919050565b60008151905061100c81610b9e565b92915050565b60006020828403121561102857611027610b94565b5b600061103684828501610ffd565b91505092915050565b7f4f776e61626c653a2063616c6c6572206973206e6f7420746865206f776e6572600082015250565b6000611075602083610eee565b91506110808261103f565b602082019050919050565b600060208201905081810360008301526110a481611068565b9050919050565b7f4e487b7100000000000000000000000000000000000000000000000000000000600052601160045260246000fd5b60006110e582610c96565b91506110f083610c96565b9250828203905081811115611108576111076110ab565b5b92915050565b7f4e487b7100000000000000000000000000000000000000000000000000000000600052603260045260246000fd5b7f4e487b7100000000000000000000000000000000000000000000000000000000600052603160045260246000fd5b82818337600083830152505050565b6000601f19601f8301169050919050565b60006111988385610eee565b93506111a583858461116c565b6111ae8361117b565b840190509392505050565b6111c281610c5c565b82525050565b6111d181610c96565b82525050565b6111e081610ccc565b82525050565b6000610100820190508181036000830152611202818c8e61118c565b90508181036020830152611217818a8c61118c565b905061122660408301896111b9565b61123360608301886111c8565b61124060808301876111c8565b61124d60a08301866111c8565b61125a60c08301856111d7565b61126760e0830184610e1d565b9b9a5050505050505050505050565b7f57656c66617265206e6f7420666f756e64000000000000000000000000000000600082015250565b60006112ac601183610eee565b91506112b782611276565b602082019050919050565b600060208201905081810360008301526112db8161129f565b905091905056fe60a060405234801561001057600080fd5b50604051612a01380380612a0183398181016040528101906100329190610609565b61004e6100436102c160201b60201c565b6102c960201b60201c565b60008661ffff1611610095576040517f08c379a000000000000000000000000000000000000000000000000000000000815260040161008c90610754565b60405180910390fd5b8385106100d7576040517f08c379a00000000000000000000000000000000000000000000000000000000081526004016100ce906107e6565b60405180910390fd5b828410610119576040517f08c379a000000000000000000000000000000000000000000000000000000000815260040161011090610878565b60405180910390fd5b6040518061012001604052808981526020018881526020018761ffff1681526020018681526020018581526020018481526020018360ff168152602001600061ffff168152602001600115158152506001600082015181600001908161017f9190610aaf565b5060208201518160010190816101959190610aaf565b5060408201518160020160006101000a81548161ffff021916908361ffff160217905550606082015181600301556080820151816004015560a0820151816005015560c08201518160060160006101000a81548160ff021916908360ff16021790555060e08201518160060160016101000a81548161ffff021916908361ffff1602179055506101008201518160060160036101000a81548160ff0219169083151502179055509050508073ffffffffffffffffffffffffffffffffffffffff1660808173ffffffffffffffffffffffffffffffffffffffff16815250507f434b43768262b01da7272deba806b27398559071a362559e5e8e3a30f82417e88887878787876040516102ac96959493929190610be7565b60405180910390a15050505050505050610c4f565b600033905090565b60008060009054906101000a900473ffffffffffffffffffffffffffffffffffffffff169050816000806101000a81548173ffffffffffffffffffffffffffffffffffffffff021916908373ffffffffffffffffffffffffffffffffffffffff1602179055508173ffffffffffffffffffffffffffffffffffffffff168173ffffffffffffffffffffffffffffffffffffffff167f8be0079c531659141344cd1fd0a4f28419497f9722a3daafe3b4186f6b6457e060405160405180910390a35050565b6000604051905090565b600080fd5b600080fd5b600080fd5b600080fd5b6000601f19601f8301169050919050565b7f4e487b7100000000000000000000000000000000000000000000000000000000600052604160045260246000fd5b6103f4826103ab565b810181811067ffffffffffffffff82111715610413576104126103bc565b5b80604052505050565b600061042661038d565b905061043282826103eb565b919050565b600067ffffffffffffffff821115610452576104516103bc565b5b61045b826103ab565b9050602081019050919050565b60005b8381101561048657808201518184015260208101905061046b565b60008484015250505050565b60006104a56104a084610437565b61041c565b9050828152602081018484840111156104c1576104c06103a6565b5b6104cc848285610468565b509392505050565b600082601f8301126104e9576104e86103a1565b5b81516104f9848260208601610492565b91505092915050565b600061ffff82169050919050565b61051981610502565b811461052457600080fd5b50565b60008151905061053681610510565b92915050565b6000819050919050565b61054f8161053c565b811461055a57600080fd5b50565b60008151905061056c81610546565b92915050565b600060ff82169050919050565b61058881610572565b811461059357600080fd5b50565b6000815190506105a58161057f565b92915050565b600073ffffffffffffffffffffffffffffffffffffffff82169050919050565b60006105d6826105ab565b9050919050565b6105e6816105cb565b81146105f157600080fd5b50565b600081519050610603816105dd565b92915050565b600080600080600080600080610100898b03121561062a57610629610397565b5b600089015167ffffffffffffffff8111156106485761064761039c565b5b6106548b828c016104d4565b985050602089015167ffffffffffffffff8111156106755761067461039c565b5b6106818b828c016104d4565b97505060406106928b828c01610527565b96505060606106a38b828c0161055d565b95505060806106b48b828c0161055d565b94505060a06106c58b828c0161055d565b93505060c06106d68b828c01610596565b92505060e06106e78b828c016105f4565b9150509295985092959890939650565b600082825260208201905092915050565b7f4361706163697479206d7573742062652067726561746572207468616e203000600082015250565b600061073e601f836106f7565b915061074982610708565b602082019050919050565b6000602082019050818103600083015261076d81610731565b9050919050565b7f5369676e75702073746172742074696d65206d757374206265206265666f726560008201527f207369676e757020656e642074696d6500000000000000000000000000000000602082015250565b60006107d06030836106f7565b91506107db82610774565b604082019050919050565b600060208201905081810360008301526107ff816107c3565b9050919050565b7f5369676e757020656e642074696d65206d757374206265206265666f7265207260008201527f6564656d7074696f6e20656e642074696d650000000000000000000000000000602082015250565b60006108626032836106f7565b915061086d82610806565b604082019050919050565b6000602082019050818103600083015261089181610855565b9050919050565b600081519050919050565b7f4e487b7100000000000000000000000000000000000000000000000000000000600052602260045260246000fd5b600060028204905060018216806108ea57607f821691505b6020821081036108fd576108fc6108a3565b5b50919050565b60008190508160005260206000209050919050565b60006020601f8301049050919050565b600082821b905092915050565b6000600883026109657fffffffffffffffffffffffffffffffffffffffffffffffffffffffffffffffff82610928565b61096f8683610928565b95508019841693508086168417925050509392505050565b6000819050919050565b60006109ac6109a76109a28461053c565b610987565b61053c565b9050919050565b6000819050919050565b6109c683610991565b6109da6109d2826109b3565b848454610935565b825550505050565b600090565b6109ef6109e2565b6109fa8184846109bd565b505050565b5b81811015610a1e57610a136000826109e7565b600181019050610a00565b5050565b601f821115610a6357610a3481610903565b610a3d84610918565b81016020851015610a4c578190505b610a60610a5885610918565b8301826109ff565b50505b505050565b600082821c905092915050565b6000610a8660001984600802610a68565b1980831691505092915050565b6000610a9f8383610a75565b9150826002028217905092915050565b610ab882610898565b67ffffffffffffffff811115610ad157610ad06103bc565b5b610adb82546108d2565b610ae6828285610a22565b600060209050601f831160018114610b195760008415610b07578287015190505b610b118582610a93565b865550610b79565b601f198416610b2786610903565b60005b82811015610b4f57848901518255600182019150602085019450602081019050610b2a565b86831015610b6c5784890151610b68601f891682610a75565b8355505b6001600288020188555050505b505050505050565b6000610b8c82610898565b610b9681856106f7565b9350610ba6818560208601610468565b610baf816103ab565b840191505092915050565b610bc381610502565b82525050565b610bd28161053c565b82525050565b610be181610572565b82525050565b600060c0820190508181036000830152610c018189610b81565b9050610c106020830188610bba565b610c1d6040830187610bc9565b610c2a6060830186610bc9565b610c376080830185610bc9565b610c4460a0830184610bd8565b979650505050505050565b608051611d5f610ca260003960008181610239015281816102de0152818161031a0152818161065f0152818161069b01528181610a6d01528181610b5e01528181610c3b015261100c0152611d5f6000f3fe608060405234801561001057600080fd5b506004361061009e5760003560e01c8063be040fb011610066578063be040fb014610111578063bf96ae631461011b578063ce7fd88b14610125578063f2fde38b1461014b578063fc0c546a146101675761009e565b80632258481c146100a35780632837eddc146100c157806351b42b00146100df578063715018a6146100e95780638da5cb5b146100f3575b600080fd5b6100ab610185565b6040516100b89190611193565b60405180910390f35b6100c96101d9565b6040516100d69190611193565b60405180910390f35b6100e761022d565b005b6100f161046e565b005b6100fb610482565b60405161010891906111ef565b60405180910390f35b6101196104ab565b005b610123610877565b005b61012d610e05565b604051610142999897969594939291906112ec565b60405180910390f35b610165600480360381019061016091906113b8565b610f87565b005b61016f61100a565b60405161017c9190611444565b60405180910390f35b6000600860003373ffffffffffffffffffffffffffffffffffffffff1673ffffffffffffffffffffffffffffffffffffffff16815260200190815260200160002060009054906101000a900460ff16905090565b6000600960003373ffffffffffffffffffffffffffffffffffffffff1673ffffffffffffffffffffffffffffffffffffffff16815260200190815260200160002060009054906101000a900460ff16905090565b61023561102e565b60007f000000000000000000000000000000000000000000000000000000000000000073ffffffffffffffffffffffffffffffffffffffff166370a08231306040518263ffffffff1660e01b815260040161029091906111ef565b602060405180830381865afa1580156102ad573d6000803e3d6000fd5b505050506040513d601f19601f820116820180604052508101906102d1919061148b565b9050600081111561040a577f000000000000000000000000000000000000000000000000000000000000000073ffffffffffffffffffffffffffffffffffffffff1663a9059cbb7f000000000000000000000000000000000000000000000000000000000000000073ffffffffffffffffffffffffffffffffffffffff166361d027b36040518163ffffffff1660e01b8152600401602060405180830381865afa158015610383573d6000803e3d6000fd5b505050506040513d601f19601f820116820180604052508101906103a791906114cd565b836040518363ffffffff1660e01b81526004016103c59291906114fa565b6020604051808303816000875af11580156103e4573d6000803e3d6000fd5b505050506040513d601f19601f82011682018060405250810190610408919061154f565b505b6000600160060160036101000a81548160ff0219169083151502179055503373ffffffffffffffffffffffffffffffffffffffff167f749cb6b4c510bc468cf6b9c2086d6f0a54d6b18e25d37bf3200e68eab0880c0060405160405180910390a250565b61047661102e565b61048060006110ac565b565b60008060009054906101000a900473ffffffffffffffffffffffffffffffffffffffff16905090565b600160060160039054906101000a900460ff166104fd576040517f08c379a00000000000000000000000000000000000000000000000000000000081526004016104f4906115c8565b60405180910390fd5b6001600501544210610544576040517f08c379a000000000000000000000000000000000000000000000000000000000815260040161053b90611634565b60405180910390fd5b600860003373ffffffffffffffffffffffffffffffffffffffff1673ffffffffffffffffffffffffffffffffffffffff16815260200190815260200160002060009054906101000a900460ff166105d0576040517f08c379a00000000000000000000000000000000000000000000000000000000081526004016105c7906116c6565b60405180910390fd5b600960003373ffffffffffffffffffffffffffffffffffffffff1673ffffffffffffffffffffffffffffffffffffffff16815260200190815260200160002060009054906101000a900460ff161561065d576040517f08c379a000000000000000000000000000000000000000000000000000000000815260040161065490611758565b60405180910390fd5b7f000000000000000000000000000000000000000000000000000000000000000073ffffffffffffffffffffffffffffffffffffffff1663a9059cbb7f000000000000000000000000000000000000000000000000000000000000000073ffffffffffffffffffffffffffffffffffffffff166361d027b36040518163ffffffff1660e01b8152600401602060405180830381865afa158015610704573d6000803e3d6000fd5b505050506040513d601f19601f8201168201806040525081019061072891906114cd565b600160060160009054906101000a900460ff166040518363ffffffff1660e01b81526004016107589291906117a9565b6020604051808303816000875af1158015610777573d6000803e3d6000fd5b505050506040513d601f19601f8201168201806040525081019061079b919061154f565b6107da576040517f08c379a00000000000000000000000000000000000000000000000000000000081526004016107d19061181e565b60405180910390fd5b6001600960003373ffffffffffffffffffffffffffffffffffffffff1673ffffffffffffffffffffffffffffffffffffffff16815260200190815260200160002060006101000a81548160ff0219169083151502179055503373ffffffffffffffffffffffffffffffffffffffff167fcb7d87f76b4d6501ac27ed560664bf84ce273a2ddd7b9b1da63c753e68ccae2060405160405180910390a2565b600160060160039054906101000a900460ff166108c9576040517f08c379a00000000000000000000000000000000000000000000000000000000081526004016108c0906115c8565b60405180910390fd5b600160030154421015610911576040517f08c379a00000000000000000000000000000000000000000000000000000000081526004016109089061188a565b60405180910390fd5b6001600401544210610958576040517f08c379a000000000000000000000000000000000000000000000000000000000815260040161094f906118f6565b60405180910390fd5b600160020160009054906101000a900461ffff1661ffff16600160060160019054906101000a900461ffff1661ffff16106109c8576040517f08c379a00000000000000000000000000000000000000000000000000000000081526004016109bf90611962565b60405180910390fd5b600860003373ffffffffffffffffffffffffffffffffffffffff1673ffffffffffffffffffffffffffffffffffffffff16815260200190815260200160002060009054906101000a900460ff1615610a55576040517f08c379a0000000000000000000000000000000000000000000000000000000008152600401610a4c906119ce565b60405180910390fd5b600160060160009054906101000a900460ff1660ff167f000000000000000000000000000000000000000000000000000000000000000073ffffffffffffffffffffffffffffffffffffffff166370a08231336040518263ffffffff1660e01b8152600401610ac491906111ef565b602060405180830381865afa158015610ae1573d6000803e3d6000fd5b505050506040513d601f19601f82011682018060405250810190610b05919061148b565b1015610b46576040517f08c379a0000000000000000000000000000000000000000000000000000000008152600401610b3d90611a60565b60405180910390fd5b600160060160009054906101000a900460ff1660ff167f000000000000000000000000000000000000000000000000000000000000000073ffffffffffffffffffffffffffffffffffffffff1663dd62ed3e33306040518363ffffffff1660e01b8152600401610bb7929190611a80565b602060405180830381865afa158015610bd4573d6000803e3d6000fd5b505050506040513d601f19601f82011682018060405250810190610bf8919061148b565b1015610c39576040517f08c379a0000000000000000000000000000000000000000000000000000000008152600401610c3090611b1b565b60405180910390fd5b7f000000000000000000000000000000000000000000000000000000000000000073ffffffffffffffffffffffffffffffffffffffff166323b872dd3330600160060160009054906101000a900460ff166040518463ffffffff1660e01b8152600401610ca893929190611b3b565b6020604051808303816000875af1158015610cc7573d6000803e3d6000fd5b505050506040513d601f19601f82011682018060405250810190610ceb919061154f565b610d2a576040517f08c379a0000000000000000000000000000000000000000000000000000000008152600401610d219061181e565b60405180910390fd5b6001600860003373ffffffffffffffffffffffffffffffffffffffff1673ffffffffffffffffffffffffffffffffffffffff16815260200190815260200160002060006101000a81548160ff0219169083151502179055506001600601600181819054906101000a900461ffff1680929190610da590611ba1565b91906101000a81548161ffff021916908361ffff160217905550503373ffffffffffffffffffffffffffffffffffffffff167fd9c2457acc5ccd00ec03bc7bd9d6017ac7fd390fa4d58a529ea2b07ccf158dc860405160405180910390a2565b6001806000018054610e1690611bfa565b80601f0160208091040260200160405190810160405280929190818152602001828054610e4290611bfa565b8015610e8f5780601f10610e6457610100808354040283529160200191610e8f565b820191906000526020600020905b815481529060010190602001808311610e7257829003601f168201915b505050505090806001018054610ea490611bfa565b80601f0160208091040260200160405190810160405280929190818152602001828054610ed090611bfa565b8015610f1d5780601f10610ef257610100808354040283529160200191610f1d565b820191906000526020600020905b815481529060010190602001808311610f0057829003601f168201915b5050505050908060020160009054906101000a900461ffff16908060030154908060040154908060050154908060060160009054906101000a900460ff16908060060160019054906101000a900461ffff16908060060160039054906101000a900460ff16905089565b610f8f61102e565b600073ffffffffffffffffffffffffffffffffffffffff168173ffffffffffffffffffffffffffffffffffffffff1603610ffe576040517f08c379a0000000000000000000000000000000000000000000000000000000008152600401610ff590611c9d565b60405180910390fd5b611007816110ac565b50565b7f000000000000000000000000000000000000000000000000000000000000000081565b611036611170565b73ffffffffffffffffffffffffffffffffffffffff16611054610482565b73ffffffffffffffffffffffffffffffffffffffff16146110aa576040517f08c379a00000000000000000000000000000000000000000000000000000000081526004016110a190611d09565b60405180910390fd5b565b60008060009054906101000a900473ffffffffffffffffffffffffffffffffffffffff169050816000806101000a81548173ffffffffffffffffffffffffffffffffffffffff021916908373ffffffffffffffffffffffffffffffffffffffff1602179055508173ffffffffffffffffffffffffffffffffffffffff168173ffffffffffffffffffffffffffffffffffffffff167f8be0079c531659141344cd1fd0a4f28419497f9722a3daafe3b4186f6b6457e060405160405180910390a35050565b600033905090565b60008115159050919050565b61118d81611178565b82525050565b60006020820190506111a86000830184611184565b92915050565b600073ffffffffffffffffffffffffffffffffffffffff82169050919050565b60006111d9826111ae565b9050919050565b6111e9816111ce565b82525050565b600060208201905061120460008301846111e0565b92915050565b600081519050919050565b600082825260208201905092915050565b60005b83811015611244578082015181840152602081019050611229565b60008484015250505050565b6000601f19601f8301169050919050565b600061126c8261120a565b6112768185611215565b9350611286818560208601611226565b61128f81611250565b840191505092915050565b600061ffff82169050919050565b6112b18161129a565b82525050565b6000819050919050565b6112ca816112b7565b82525050565b600060ff82169050919050565b6112e6816112d0565b82525050565b6000610120820190508181036000830152611307818c611261565b9050818103602083015261131b818b611261565b905061132a604083018a6112a8565b61133760608301896112c1565b61134460808301886112c1565b61135160a08301876112c1565b61135e60c08301866112dd565b61136b60e08301856112a8565b611379610100830184611184565b9a9950505050505050505050565b600080fd5b611395816111ce565b81146113a057600080fd5b50565b6000813590506113b28161138c565b92915050565b6000602082840312156113ce576113cd611387565b5b60006113dc848285016113a3565b91505092915050565b6000819050919050565b600061140a611405611400846111ae565b6113e5565b6111ae565b9050919050565b600061141c826113ef565b9050919050565b600061142e82611411565b9050919050565b61143e81611423565b82525050565b60006020820190506114596000830184611435565b92915050565b611468816112b7565b811461147357600080fd5b50565b6000815190506114858161145f565b92915050565b6000602082840312156114a1576114a0611387565b5b60006114af84828501611476565b91505092915050565b6000815190506114c78161138c565b92915050565b6000602082840312156114e3576114e2611387565b5b60006114f1848285016114b8565b91505092915050565b600060408201905061150f60008301856111e0565b61151c60208301846112c1565b9392505050565b61152c81611178565b811461153757600080fd5b50565b60008151905061154981611523565b92915050565b60006020828403121561156557611564611387565b5b60006115738482850161153a565b91505092915050565b7f57656c66617265206973206e6f74206163746976650000000000000000000000600082015250565b60006115b2601583611215565b91506115bd8261157c565b602082019050919050565b600060208201905081810360008301526115e1816115a5565b9050919050565b7f526564656d7074696f6e2074696d652068617320656e64656400000000000000600082015250565b600061161e601983611215565b9150611629826115e8565b602082019050919050565b6000602082019050818103600083015261164d81611611565b9050919050565b7f596f7520617265206e6f74207369676e656420757020666f722074686520776560008201527f6c66617265000000000000000000000000000000000000000000000000000000602082015250565b60006116b0602583611215565b91506116bb82611654565b604082019050919050565b600060208201905081810360008301526116df816116a3565b9050919050565b7f596f75206861766520616c72656164792072656465656d656420796f7572207260008201527f6577617264000000000000000000000000000000000000000000000000000000602082015250565b6000611742602583611215565b915061174d826116e6565b604082019050919050565b6000602082019050818103600083015261177181611735565b9050919050565b600061179361178e611789846112d0565b6113e5565b6112b7565b9050919050565b6117a381611778565b82525050565b60006040820190506117be60008301856111e0565b6117cb602083018461179a565b9392505050565b7f546f6b656e207472616e73666572206661696c65640000000000000000000000600082015250565b6000611808601583611215565b9150611813826117d2565b602082019050919050565b60006020820190508181036000830152611837816117fb565b9050919050565b7f5369676e757020686173206e6f74207374617274656420796574000000000000600082015250565b6000611874601a83611215565b915061187f8261183e565b602082019050919050565b600060208201905081810360008301526118a381611867565b9050919050565b7f5369676e75702068617320656e64656400000000000000000000000000000000600082015250565b60006118e0601083611215565b91506118eb826118aa565b602082019050919050565b6000602082019050818103600083015261190f816118d3565b9050919050565b7f57656c666172652069732066756c6c0000000000000000000000000000000000600082015250565b600061194c600f83611215565b915061195782611916565b602082019050919050565b6000602082019050818103600083015261197b8161193f565b9050919050565b7f416c7265616479207369676e6564207570000000000000000000000000000000600082015250565b60006119b8601183611215565b91506119c382611982565b602082019050919050565b600060208201905081810360008301526119e7816119ab565b9050919050565b7f496e73756666696369656e742062616c616e63653a204e6f7420656e6f75676860008201527f20746f6b656e7320746f20636f6d706c65746520726564656d7074696f6e0000602082015250565b6000611a4a603e83611215565b9150611a55826119ee565b604082019050919050565b60006020820190508181036000830152611a7981611a3d565b9050919050565b6000604082019050611a9560008301856111e0565b611aa260208301846111e0565b9392505050565b7f496e73756666696369656e7420616c6c6f77616e63653a20417070726f76616c60008201527f20666f7220726564656d7074696f6e20636f7374206e6f74206772616e746564602082015250565b6000611b05604083611215565b9150611b1082611aa9565b604082019050919050565b60006020820190508181036000830152611b3481611af8565b9050919050565b6000606082019050611b5060008301866111e0565b611b5d60208301856111e0565b611b6a604083018461179a565b949350505050565b7f4e487b7100000000000000000000000000000000000000000000000000000000600052601160045260246000fd5b6000611bac8261129a565b915061ffff8203611bc057611bbf611b72565b5b600182019050919050565b7f4e487b7100000000000000000000000000000000000000000000000000000000600052602260045260246000fd5b60006002820490506001821680611c1257607f821691505b602082108103611c2557611c24611bcb565b5b50919050565b7f4f776e61626c653a206e6577206f776e657220697320746865207a65726f206160008201527f6464726573730000000000000000000000000000000000000000000000000000602082015250565b6000611c87602683611215565b9150611c9282611c2b565b604082019050919050565b60006020820190508181036000830152611cb681611c7a565b9050919050565b7f4f776e61626c653a2063616c6c6572206973206e6f7420746865206f776e6572600082015250565b6000611cf3602083611215565b9150611cfe82611cbd565b602082019050919050565b60006020820190508181036000830152611d2281611ce6565b905091905056fea2646970667358221220b03cb293a89ca3fe31760153054bc7f5513bf15df49c1192e7d008ae83faf47464736f6c634300081c0033a26469706673582212206d17c0b1c83957b8870d0419353d5d1caad3dfffcb582004455fe9a22ec0662764736f6c634300081c0033",
  "linkReferences": {},
  "deployedLinkReferences": {}
}