{
  "_format": "hh-sol-artifact-1",
  "contractName": "EventFactory",
  "sourceName": "contracts/EventFactory.sol",
  "abi": [
    {
      "inputs": [
        {
          "internalType": "address",
          "name": "_tokenAddress",
          "type": "address"
        }
      ],
      "stateMutability": "nonpayable",
      "type": "constructor"
    },
    {
      "anonymous": false,
      "inputs": [
        {
          "indexed": true,
          "internalType": "address",
          "name": "eventAddress",
          "type": "address"
        }
      ],
      "name": "EventArchived",
      "type": "event"
    },
    {
      "anonymous": false,
      "inputs": [
        {
          "indexed": true,
          "internalType": "address",
          "name": "eventAddress",
          "type": "address"
        }
      ],
      "name": "EventDeployed",
      "type": "event"
    },
    {
      "inputs": [
        {
          "internalType": "uint256",
          "name": "",
          "type": "uint256"
        }
      ],
      "name": "activeEvents",
      "outputs": [
        {
          "internalType": "address",
          "name": "",
          "type": "address"
        }
      ],
      "stateMutability": "view",
      "type": "function"
    },
    {
      "inputs": [
        {
          "internalType": "address",
          "name": "eventAddress",
          "type": "address"
        }
      ],
      "name": "archiveEvent",
      "outputs": [],
      "stateMutability": "nonpayable",
      "type": "function"
    },
    {
      "inputs": [
        {
          "internalType": "string",
          "name": "_name",
          "type": "string"
        },
        {
          "internalType": "string",
          "name": "_description",
          "type": "string"
        },
        {
          "internalType": "uint16",
          "name": "_maxCapacity",
          "type": "uint16"
        },
        {
          "internalType": "uint256",
          "name": "_signupStartTime",
          "type": "uint256"
        },
        {
          "internalType": "uint256",
          "name": "_signupEndTime",
          "type": "uint256"
        },
        {
          "internalType": "uint256",
          "name": "_eventStartTime",
          "type": "uint256"
        },
        {
          "internalType": "uint256",
          "name": "_eventEndTime",
          "type": "uint256"
        },
        {
          "internalType": "uint8",
          "name": "_rewardCost",
          "type": "uint8"
        }
      ],
      "name": "createEvent",
      "outputs": [],
      "stateMutability": "nonpayable",
      "type": "function"
    },
    {
      "inputs": [],
      "name": "getActiveEvents",
      "outputs": [
        {
          "internalType": "address[]",
          "name": "",
          "type": "address[]"
        }
      ],
      "stateMutability": "view",
      "type": "function"
    },
    {
      "inputs": [],
      "name": "getInactiveEvents",
      "outputs": [
        {
          "internalType": "address[]",
          "name": "",
          "type": "address[]"
        }
      ],
      "stateMutability": "view",
      "type": "function"
    },
    {
      "inputs": [
        {
          "internalType": "uint256",
          "name": "",
          "type": "uint256"
        }
      ],
      "name": "inactiveEvents",
      "outputs": [
        {
          "internalType": "address",
          "name": "",
          "type": "address"
        }
      ],
      "stateMutability": "view",
      "type": "function"
    },
    {
      "inputs": [
        {
          "internalType": "address",
          "name": "",
          "type": "address"
        }
      ],
      "name": "isActiveEvent",
      "outputs": [
        {
          "internalType": "bool",
          "name": "",
          "type": "bool"
        }
      ],
      "stateMutability": "view",
      "type": "function"
    },
    {
      "inputs": [],
      "name": "token",
      "outputs": [
        {
          "internalType": "contract Token",
          "name": "",
          "type": "address"
        }
      ],
      "stateMutability": "view",
      "type": "function"
    },
    {
      "inputs": [],
      "name": "treasury",
      "outputs": [
        {
          "internalType": "address",
          "name": "",
          "type": "address"
        }
      ],
      "stateMutability": "view",
      "type": "function"
    }
  ],
  "bytecode": "0x60c060405234801561001057600080fd5b50604051614b5b380380614b5b833981810160405281019061003291906101e2565b600073ffffffffffffffffffffffffffffffffffffffff168173ffffffffffffffffffffffffffffffffffffffff16036100a1576040517f08c379a00000000000000000000000000000000000000000000000000000000081526004016100989061026c565b60405180910390fd5b8073ffffffffffffffffffffffffffffffffffffffff1660a08173ffffffffffffffffffffffffffffffffffffffff168152505060a05173ffffffffffffffffffffffffffffffffffffffff166361d027b36040518163ffffffff1660e01b8152600401602060405180830381865afa158015610122573d6000803e3d6000fd5b505050506040513d601f19601f8201168201806040525081019061014691906101e2565b73ffffffffffffffffffffffffffffffffffffffff1660808173ffffffffffffffffffffffffffffffffffffffff16815250505061028c565b600080fd5b600073ffffffffffffffffffffffffffffffffffffffff82169050919050565b60006101af82610184565b9050919050565b6101bf816101a4565b81146101ca57600080fd5b50565b6000815190506101dc816101b6565b92915050565b6000602082840312156101f8576101f761017f565b5b6000610206848285016101cd565b91505092915050565b600082825260208201905092915050565b7f496e76616c696420746f6b656e20616464726573730000000000000000000000600082015250565b600061025660158361020f565b915061026182610220565b602082019050919050565b6000602082019050818103600083015261028581610249565b9050919050565b60805160a0516148956102c6600039600081816102f20152818161048b015281816105660152610b140152600061066301526148956000f3fe608060405234801561001057600080fd5b50600436106100935760003560e01c806361d027b31161006657806361d027b3146101325780638d7b871b14610150578063bea878171461016c578063d77020961461018a578063fc0c546a146101ba57610093565b80631fd96ec8146100985780633612280f146100c857806337c29377146100e65780634c9ab17c14610116575b600080fd5b6100b260048036038101906100ad9190610c60565b6101d8565b6040516100bf9190610cce565b60405180910390f35b6100d0610217565b6040516100dd9190610da7565b60405180910390f35b61010060048036038101906100fb9190610c60565b6102a5565b60405161010d9190610cce565b60405180910390f35b610130600480360381019061012b9190610ea1565b6102e4565b005b61013a610661565b6040516101479190610cce565b60405180910390f35b61016a60048036038101906101659190610fc4565b610685565b005b610174610a64565b6040516101819190610da7565b60405180910390f35b6101a4600480360381019061019f9190610fc4565b610af2565b6040516101b1919061100c565b60405180910390f35b6101c2610b12565b6040516101cf9190611086565b60405180910390f35b600181815481106101e857600080fd5b906000526020600020016000915054906101000a900473ffffffffffffffffffffffffffffffffffffffff1681565b6060600080548060200260200160405190810160405280929190818152602001828054801561029b57602002820191906000526020600020905b8160009054906101000a900473ffffffffffffffffffffffffffffffffffffffff1673ffffffffffffffffffffffffffffffffffffffff1681526020019060010190808311610251575b5050505050905090565b600081815481106102b557600080fd5b906000526020600020016000915054906101000a900473ffffffffffffffffffffffffffffffffffffffff1681565b60008a8a8a8a8a8a8a8a8a8a7f000000000000000000000000000000000000000000000000000000000000000060405161031d90610c13565b6103319b9a9998979695949392919061112c565b604051809103906000f08015801561034d573d6000803e3d6000fd5b5090506000819080600181540180825580915050600190039060005260206000200160009091909190916101000a81548173ffffffffffffffffffffffffffffffffffffffff021916908373ffffffffffffffffffffffffffffffffffffffff1602179055506001600260008373ffffffffffffffffffffffffffffffffffffffff1673ffffffffffffffffffffffffffffffffffffffff16815260200190815260200160002060006101000a81548160ff0219169083151502179055508073ffffffffffffffffffffffffffffffffffffffff1663f2fde38b336040518263ffffffff1660e01b81526004016104449190610cce565b600060405180830381600087803b15801561045e57600080fd5b505af1158015610472573d6000803e3d6000fd5b50505050868260ff1661048591906111fa565b61ffff167f000000000000000000000000000000000000000000000000000000000000000073ffffffffffffffffffffffffffffffffffffffff166370a08231306040518263ffffffff1660e01b81526004016104e29190610cce565b602060405180830381865afa1580156104ff573d6000803e3d6000fd5b505050506040513d601f19601f82011682018060405250810190610523919061124c565b1015610564576040517f08c379a000000000000000000000000000000000000000000000000000000000815260040161055b906112c5565b60405180910390fd5b7f000000000000000000000000000000000000000000000000000000000000000073ffffffffffffffffffffffffffffffffffffffff1663a9059cbb82898560ff166105b091906111fa565b6040518363ffffffff1660e01b81526004016105cd929190611316565b6020604051808303816000875af11580156105ec573d6000803e3d6000fd5b505050506040513d601f19601f82011682018060405250810190610610919061136b565b508073ffffffffffffffffffffffffffffffffffffffff167fb8098218610b85a7932fefe2a99c87ca9c074afa5429aa87f18319c373bd6ecf60405160405180910390a25050505050505050505050565b7f000000000000000000000000000000000000000000000000000000000000000081565b600073ffffffffffffffffffffffffffffffffffffffff168173ffffffffffffffffffffffffffffffffffffffff16036106f4576040517f08c379a00000000000000000000000000000000000000000000000000000000081526004016106eb906113e4565b60405180910390fd5b600260008273ffffffffffffffffffffffffffffffffffffffff1673ffffffffffffffffffffffffffffffffffffffff16815260200190815260200160002060009054906101000a900460ff16610780576040517f08c379a000000000000000000000000000000000000000000000000000000000815260040161077790611476565b60405180910390fd5b60008190508073ffffffffffffffffffffffffffffffffffffffff16638da5cb5b6040518163ffffffff1660e01b8152600401602060405180830381865afa1580156107d0573d6000803e3d6000fd5b505050506040513d601f19601f820116820180604052508101906107f491906114ab565b73ffffffffffffffffffffffffffffffffffffffff163373ffffffffffffffffffffffffffffffffffffffff1614610861576040517f08c379a000000000000000000000000000000000000000000000000000000000815260040161085890611524565b60405180910390fd5b6000600260008473ffffffffffffffffffffffffffffffffffffffff1673ffffffffffffffffffffffffffffffffffffffff16815260200190815260200160002060006101000a81548160ff0219169083151502179055506001829080600181540180825580915050600190039060005260206000200160009091909190916101000a81548173ffffffffffffffffffffffffffffffffffffffff021916908373ffffffffffffffffffffffffffffffffffffffff160217905550600061092783610b36565b90506000600160008054905061093d9190611544565b8154811061094e5761094d611578565b5b9060005260206000200160009054906101000a900473ffffffffffffffffffffffffffffffffffffffff166000828154811061098d5761098c611578565b5b9060005260206000200160006101000a81548173ffffffffffffffffffffffffffffffffffffffff021916908373ffffffffffffffffffffffffffffffffffffffff16021790555060008054806109e7576109e66115a7565b5b6001900381819060005260206000200160006101000a81549073ffffffffffffffffffffffffffffffffffffffff021916905590558273ffffffffffffffffffffffffffffffffffffffff167ff8c40d31eae52650b4b9cd0fece0b2bfdb70d0047a93a1619353994e057de4f260405160405180910390a2505050565b60606001805480602002602001604051908101604052809291908181526020018280548015610ae857602002820191906000526020600020905b8160009054906101000a900473ffffffffffffffffffffffffffffffffffffffff1673ffffffffffffffffffffffffffffffffffffffff1681526020019060010190808311610a9e575b5050505050905090565b60026020528060005260406000206000915054906101000a900460ff1681565b7f000000000000000000000000000000000000000000000000000000000000000081565b600080600090505b600080549050811015610bd2578273ffffffffffffffffffffffffffffffffffffffff1660008281548110610b7657610b75611578565b5b9060005260206000200160009054906101000a900473ffffffffffffffffffffffffffffffffffffffff1673ffffffffffffffffffffffffffffffffffffffff1603610bc55780915050610c0e565b8080600101915050610b3e565b506040517f08c379a0000000000000000000000000000000000000000000000000000000008152600401610c0590611622565b60405180910390fd5b919050565b61321d8061164383390190565b600080fd5b600080fd5b6000819050919050565b610c3d81610c2a565b8114610c4857600080fd5b50565b600081359050610c5a81610c34565b92915050565b600060208284031215610c7657610c75610c20565b5b6000610c8484828501610c4b565b91505092915050565b600073ffffffffffffffffffffffffffffffffffffffff82169050919050565b6000610cb882610c8d565b9050919050565b610cc881610cad565b82525050565b6000602082019050610ce36000830184610cbf565b92915050565b600081519050919050565b600082825260208201905092915050565b6000819050602082019050919050565b610d1e81610cad565b82525050565b6000610d308383610d15565b60208301905092915050565b6000602082019050919050565b6000610d5482610ce9565b610d5e8185610cf4565b9350610d6983610d05565b8060005b83811015610d9a578151610d818882610d24565b9750610d8c83610d3c565b925050600181019050610d6d565b5085935050505092915050565b60006020820190508181036000830152610dc18184610d49565b905092915050565b600080fd5b600080fd5b600080fd5b60008083601f840112610dee57610ded610dc9565b5b8235905067ffffffffffffffff811115610e0b57610e0a610dce565b5b602083019150836001820283011115610e2757610e26610dd3565b5b9250929050565b600061ffff82169050919050565b610e4581610e2e565b8114610e5057600080fd5b50565b600081359050610e6281610e3c565b92915050565b600060ff82169050919050565b610e7e81610e68565b8114610e8957600080fd5b50565b600081359050610e9b81610e75565b92915050565b6000806000806000806000806000806101008b8d031215610ec557610ec4610c20565b5b60008b013567ffffffffffffffff811115610ee357610ee2610c25565b5b610eef8d828e01610dd8565b9a509a505060208b013567ffffffffffffffff811115610f1257610f11610c25565b5b610f1e8d828e01610dd8565b98509850506040610f318d828e01610e53565b9650506060610f428d828e01610c4b565b9550506080610f538d828e01610c4b565b94505060a0610f648d828e01610c4b565b93505060c0610f758d828e01610c4b565b92505060e0610f868d828e01610e8c565b9150509295989b9194979a5092959850565b610fa181610cad565b8114610fac57600080fd5b50565b600081359050610fbe81610f98565b92915050565b600060208284031215610fda57610fd9610c20565b5b6000610fe884828501610faf565b91505092915050565b60008115159050919050565b61100681610ff1565b82525050565b60006020820190506110216000830184610ffd565b92915050565b6000819050919050565b600061104c61104761104284610c8d565b611027565b610c8d565b9050919050565b600061105e82611031565b9050919050565b600061107082611053565b9050919050565b61108081611065565b82525050565b600060208201905061109b6000830184611077565b92915050565b600082825260208201905092915050565b82818337600083830152505050565b6000601f19601f8301169050919050565b60006110de83856110a1565b93506110eb8385846110b2565b6110f4836110c1565b840190509392505050565b61110881610e2e565b82525050565b61111781610c2a565b82525050565b61112681610e68565b82525050565b6000610120820190508181036000830152611148818d8f6110d2565b9050818103602083015261115d818b8d6110d2565b905061116c604083018a6110ff565b611179606083018961110e565b611186608083018861110e565b61119360a083018761110e565b6111a060c083018661110e565b6111ad60e083018561111d565b6111bb610100830184610cbf565b9c9b505050505050505050505050565b7f4e487b7100000000000000000000000000000000000000000000000000000000600052601160045260246000fd5b600061120582610e2e565b915061121083610e2e565b925082820261121e81610e2e565b91508082146112305761122f6111cb565b5b5092915050565b60008151905061124681610c34565b92915050565b60006020828403121561126257611261610c20565b5b600061127084828501611237565b91505092915050565b7f466163746f72792068617320696e73756666696369656e7420746f6b656e7300600082015250565b60006112af601f836110a1565b91506112ba82611279565b602082019050919050565b600060208201905081810360008301526112de816112a2565b9050919050565b60006113006112fb6112f684610e2e565b611027565b610c2a565b9050919050565b611310816112e5565b82525050565b600060408201905061132b6000830185610cbf565b6113386020830184611307565b9392505050565b61134881610ff1565b811461135357600080fd5b50565b6000815190506113658161133f565b92915050565b60006020828403121561138157611380610c20565b5b600061138f84828501611356565b91505092915050565b7f496e76616c696420616464726573730000000000000000000000000000000000600082015250565b60006113ce600f836110a1565b91506113d982611398565b602082019050919050565b600060208201905081810360008301526113fd816113c1565b9050919050565b7f4576656e74206e6f7420666f756e64206f7220616c726561647920696e61637460008201527f6976650000000000000000000000000000000000000000000000000000000000602082015250565b60006114606023836110a1565b915061146b82611404565b604082019050919050565b6000602082019050818103600083015261148f81611453565b9050919050565b6000815190506114a581610f98565b92915050565b6000602082840312156114c1576114c0610c20565b5b60006114cf84828501611496565b91505092915050565b7f4f776e61626c653a2063616c6c6572206973206e6f7420746865206f776e6572600082015250565b600061150e6020836110a1565b9150611519826114d8565b602082019050919050565b6000602082019050818103600083015261153d81611501565b9050919050565b600061154f82610c2a565b915061155a83610c2a565b9250828203905081811115611572576115716111cb565b5b92915050565b7f4e487b7100000000000000000000000000000000000000000000000000000000600052603260045260246000fd5b7f4e487b7100000000000000000000000000000000000000000000000000000000600052603160045260246000fd5b7f4576656e74206e6f7420666f756e640000000000000000000000000000000000600082015250565b600061160c600f836110a1565b9150611617826115d6565b602082019050919050565b6000602082019050818103600083015261163b816115ff565b905091905056fe60a060405234801561001057600080fd5b5060405161321d38038061321d83398181016040528101906100329190610655565b61004e61004361030d60201b60201c565b61031560201b60201c565b60008761ffff1611610095576040517f08c379a000000000000000000000000000000000000000000000000000000000815260040161008c906107b4565b60405180910390fd5b8486106100d7576040517f08c379a00000000000000000000000000000000000000000000000000000000081526004016100ce90610846565b60405180910390fd5b838510610119576040517f08c379a0000000000000000000000000000000000000000000000000000000008152600401610110906108d8565b60405180910390fd5b82841061015b576040517f08c379a000000000000000000000000000000000000000000000000000000000815260040161015290610944565b60405180910390fd5b6040518061014001604052808a81526020018981526020018861ffff1681526020018781526020018681526020018581526020018481526020018360ff168152602001600061ffff16815260200160011515815250600160008201518160000190816101c79190610b7b565b5060208201518160010190816101dd9190610b7b565b5060408201518160020160006101000a81548161ffff021916908361ffff160217905550606082015181600301556080820151816004015560a0820151816005015560c0820151816006015560e08201518160070160006101000a81548160ff021916908360ff1602179055506101008201518160070160016101000a81548161ffff021916908361ffff1602179055506101208201518160070160036101000a81548160ff0219169083151502179055509050508073ffffffffffffffffffffffffffffffffffffffff1660808173ffffffffffffffffffffffffffffffffffffffff16815250507f4323f5c7ddca86840eb0fe3c46547e59b58f56f1d4251357c3120af50b6d4aa889886040516102f7929190610c95565b60405180910390a1505050505050505050610cc5565b600033905090565b60008060009054906101000a900473ffffffffffffffffffffffffffffffffffffffff169050816000806101000a81548173ffffffffffffffffffffffffffffffffffffffff021916908373ffffffffffffffffffffffffffffffffffffffff1602179055508173ffffffffffffffffffffffffffffffffffffffff168173ffffffffffffffffffffffffffffffffffffffff167f8be0079c531659141344cd1fd0a4f28419497f9722a3daafe3b4186f6b6457e060405160405180910390a35050565b6000604051905090565b600080fd5b600080fd5b600080fd5b600080fd5b6000601f19601f8301169050919050565b7f4e487b7100000000000000000000000000000000000000000000000000000000600052604160045260246000fd5b610440826103f7565b810181811067ffffffffffffffff8211171561045f5761045e610408565b5b80604052505050565b60006104726103d9565b905061047e8282610437565b919050565b600067ffffffffffffffff82111561049e5761049d610408565b5b6104a7826103f7565b9050602081019050919050565b60005b838110156104d25780820151818401526020810190506104b7565b60008484015250505050565b60006104f16104ec84610483565b610468565b90508281526020810184848401111561050d5761050c6103f2565b5b6105188482856104b4565b509392505050565b600082601f830112610535576105346103ed565b5b81516105458482602086016104de565b91505092915050565b600061ffff82169050919050565b6105658161054e565b811461057057600080fd5b50565b6000815190506105828161055c565b92915050565b6000819050919050565b61059b81610588565b81146105a657600080fd5b50565b6000815190506105b881610592565b92915050565b600060ff82169050919050565b6105d4816105be565b81146105df57600080fd5b50565b6000815190506105f1816105cb565b92915050565b600073ffffffffffffffffffffffffffffffffffffffff82169050919050565b6000610622826105f7565b9050919050565b61063281610617565b811461063d57600080fd5b50565b60008151905061064f81610629565b92915050565b60008060008060008060008060006101208a8c031215610678576106776103e3565b5b60008a015167ffffffffffffffff811115610696576106956103e8565b5b6106a28c828d01610520565b99505060208a015167ffffffffffffffff8111156106c3576106c26103e8565b5b6106cf8c828d01610520565b98505060406106e08c828d01610573565b97505060606106f18c828d016105a9565b96505060806107028c828d016105a9565b95505060a06107138c828d016105a9565b94505060c06107248c828d016105a9565b93505060e06107358c828d016105e2565b9250506101006107478c828d01610640565b9150509295985092959850929598565b600082825260208201905092915050565b7f4361706163697479206d7573742062652067726561746572207468616e203000600082015250565b600061079e601f83610757565b91506107a982610768565b602082019050919050565b600060208201905081810360008301526107cd81610791565b9050919050565b7f5369676e75702073746172742074696d65206d757374206265206265666f726560008201527f207369676e757020656e642074696d6500000000000000000000000000000000602082015250565b6000610830603083610757565b915061083b826107d4565b604082019050919050565b6000602082019050818103600083015261085f81610823565b9050919050565b7f5369676e7570206d75737420656e64206265666f7265206576656e742073746160008201527f7274730000000000000000000000000000000000000000000000000000000000602082015250565b60006108c2602383610757565b91506108cd82610866565b604082019050919050565b600060208201905081810360008301526108f1816108b5565b9050919050565b7f4576656e74206d75737420656e64206166746572206974207374617274730000600082015250565b600061092e601e83610757565b9150610939826108f8565b602082019050919050565b6000602082019050818103600083015261095d81610921565b9050919050565b600081519050919050565b7f4e487b7100000000000000000000000000000000000000000000000000000000600052602260045260246000fd5b600060028204905060018216806109b657607f821691505b6020821081036109c9576109c861096f565b5b50919050565b60008190508160005260206000209050919050565b60006020601f8301049050919050565b600082821b905092915050565b600060088302610a317fffffffffffffffffffffffffffffffffffffffffffffffffffffffffffffffff826109f4565b610a3b86836109f4565b95508019841693508086168417925050509392505050565b6000819050919050565b6000610a78610a73610a6e84610588565b610a53565b610588565b9050919050565b6000819050919050565b610a9283610a5d565b610aa6610a9e82610a7f565b848454610a01565b825550505050565b600090565b610abb610aae565b610ac6818484610a89565b505050565b5b81811015610aea57610adf600082610ab3565b600181019050610acc565b5050565b601f821115610b2f57610b00816109cf565b610b09846109e4565b81016020851015610b18578190505b610b2c610b24856109e4565b830182610acb565b50505b505050565b600082821c905092915050565b6000610b5260001984600802610b34565b1980831691505092915050565b6000610b6b8383610b41565b9150826002028217905092915050565b610b8482610964565b67ffffffffffffffff811115610b9d57610b9c610408565b5b610ba7825461099e565b610bb2828285610aee565b600060209050601f831160018114610be55760008415610bd3578287015190505b610bdd8582610b5f565b865550610c45565b601f198416610bf3866109cf565b60005b82811015610c1b57848901518255600182019150602085019450602081019050610bf6565b86831015610c385784890151610c34601f891682610b41565b8355505b6001600288020188555050505b505050505050565b6000610c5882610964565b610c628185610757565b9350610c728185602086016104b4565b610c7b816103f7565b840191505092915050565b610c8f8161054e565b82525050565b60006040820190508181036000830152610caf8185610c4d565b9050610cbe6020830184610c86565b9392505050565b608051612521610cfc600039600081816105d2015281816107c80152818161086d015281816108a9015261133101526125216000f3fe608060405234801561001057600080fd5b50600436106100cf5760003560e01c80638da5cb5b1161008c578063d9a1963511610066578063d9a19635146101a4578063f1386cd6146101c2578063f2fde38b146101e9578063fc0c546a14610205576100cf565b80638da5cb5b1461014c578063adcfb4fc1461016a578063c7e4623e14610186576100cf565b8063183ff085146100d45780632258481c146100de5780632837eddc146100fc57806351b42b001461011a578063715018a6146101245780637a5b4f591461012e575b600080fd5b6100dc610223565b005b6100e66106ef565b6040516100f391906114b8565b60405180910390f35b610104610747565b60405161011191906114b8565b60405180910390f35b61012261079e565b005b61012c6109df565b005b6101366109f3565b6040516101439190611563565b60405180910390f35b610154610b56565b60405161016191906115c6565b60405180910390f35b610184600480360381019061017f9190611650565b610b7f565b005b61018e610f1f565b60405161019b91906114b8565b60405180910390f35b6101ac610f76565b6040516101b991906117a9565b60405180910390f35b6101ca611124565b6040516101e09a9998979695949392919061181d565b60405180910390f35b61020360048036038101906101fe91906118f3565b6112ac565b005b61020d61132f565b60405161021a919061197f565b60405180910390f35b6000600160405180610140016040529081600082018054610243906119c9565b80601f016020809104026020016040519081016040528092919081815260200182805461026f906119c9565b80156102bc5780601f10610291576101008083540402835291602001916102bc565b820191906000526020600020905b81548152906001019060200180831161029f57829003601f168201915b505050505081526020016001820180546102d5906119c9565b80601f0160208091040260200160405190810160405280929190818152602001828054610301906119c9565b801561034e5780601f106103235761010080835404028352916020019161034e565b820191906000526020600020905b81548152906001019060200180831161033157829003601f168201915b505050505081526020016002820160009054906101000a900461ffff1661ffff1661ffff168152602001600382015481526020016004820154815260200160058201548152602001600682015481526020016007820160009054906101000a900460ff1660ff1660ff1681526020016007820160019054906101000a900461ffff1661ffff1661ffff1681526020016007820160039054906101000a900460ff161515151581525050905080610120015161043e576040517f08c379a000000000000000000000000000000000000000000000000000000000815260040161043590611a46565b60405180910390fd5b8060a00151421015610485576040517f08c379a000000000000000000000000000000000000000000000000000000000815260040161047c90611ab2565b60405180910390fd5b8060c0015142106104cb576040517f08c379a00000000000000000000000000000000000000000000000000000000081526004016104c290611b1e565b60405180910390fd5b6000600960003373ffffffffffffffffffffffffffffffffffffffff1673ffffffffffffffffffffffffffffffffffffffff1681526020019081526020016000209050600081600101805461051f906119c9565b905011610561576040517f08c379a000000000000000000000000000000000000000000000000000000000815260040161055890611b8a565b60405180910390fd5b8060000160009054906101000a900460ff16156105b3576040517f08c379a00000000000000000000000000000000000000000000000000000000081526004016105aa90611bf6565b60405180910390fd5b60018160000160006101000a81548160ff0219169083151502179055507f000000000000000000000000000000000000000000000000000000000000000073ffffffffffffffffffffffffffffffffffffffff1663a9059cbb338460e001516040518363ffffffff1660e01b815260040161062f929190611c47565b6020604051808303816000875af115801561064e573d6000803e3d6000fd5b505050506040513d601f19601f820116820180604052508101906106729190611c9c565b6106b1576040517f08c379a00000000000000000000000000000000000000000000000000000000081526004016106a890611d15565b60405180910390fd5b7f4e94a53099afe8de4d46277703c9b2d66e483397ea2432ab809c4d905097a30f816001016040516106e39190611dce565b60405180910390a15050565b600080600960003373ffffffffffffffffffffffffffffffffffffffff1673ffffffffffffffffffffffffffffffffffffffff168152602001908152602001600020600101805461073f906119c9565b905011905090565b6000600960003373ffffffffffffffffffffffffffffffffffffffff1673ffffffffffffffffffffffffffffffffffffffff16815260200190815260200160002060000160009054906101000a900460ff16905090565b6107a6611353565b6000600160070160036101000a81548160ff02191690831515021790555060007f000000000000000000000000000000000000000000000000000000000000000073ffffffffffffffffffffffffffffffffffffffff166370a08231306040518263ffffffff1660e01b815260040161081f91906115c6565b602060405180830381865afa15801561083c573d6000803e3d6000fd5b505050506040513d601f19601f820116820180604052508101906108609190611e1c565b90506000811115610999577f000000000000000000000000000000000000000000000000000000000000000073ffffffffffffffffffffffffffffffffffffffff1663a9059cbb7f000000000000000000000000000000000000000000000000000000000000000073ffffffffffffffffffffffffffffffffffffffff166361d027b36040518163ffffffff1660e01b8152600401602060405180830381865afa158015610912573d6000803e3d6000fd5b505050506040513d601f19601f820116820180604052508101906109369190611e5e565b836040518363ffffffff1660e01b8152600401610954929190611e8b565b6020604051808303816000875af1158015610973573d6000803e3d6000fd5b505050506040513d601f19601f820116820180604052508101906109979190611c9c565b505b3373ffffffffffffffffffffffffffffffffffffffff167f749cb6b4c510bc468cf6b9c2086d6f0a54d6b18e25d37bf3200e68eab0880c0060405160405180910390a250565b6109e7611353565b6109f160006113d1565b565b60606000600960003373ffffffffffffffffffffffffffffffffffffffff1673ffffffffffffffffffffffffffffffffffffffff1681526020019081526020016000206001018054610a44906119c9565b905011610a86576040517f08c379a0000000000000000000000000000000000000000000000000000000008152600401610a7d90611f00565b60405180910390fd5b600960003373ffffffffffffffffffffffffffffffffffffffff1673ffffffffffffffffffffffffffffffffffffffff1681526020019081526020016000206001018054610ad3906119c9565b80601f0160208091040260200160405190810160405280929190818152602001828054610aff906119c9565b8015610b4c5780601f10610b2157610100808354040283529160200191610b4c565b820191906000526020600020905b815481529060010190602001808311610b2f57829003601f168201915b5050505050905090565b60008060009054906101000a900473ffffffffffffffffffffffffffffffffffffffff16905090565b600160070160039054906101000a900460ff16610bd1576040517f08c379a0000000000000000000000000000000000000000000000000000000008152600401610bc890611a46565b60405180910390fd5b600160030154421015610c19576040517f08c379a0000000000000000000000000000000000000000000000000000000008152600401610c1090611f6c565b60405180910390fd5b6001600401544210610c60576040517f08c379a0000000000000000000000000000000000000000000000000000000008152600401610c5790611fd8565b60405180910390fd5b600160020160009054906101000a900461ffff1661ffff16600160070160019054906101000a900461ffff1661ffff1610610cd0576040517f08c379a0000000000000000000000000000000000000000000000000000000008152600401610cc790612044565b60405180910390fd5b6000600960003373ffffffffffffffffffffffffffffffffffffffff1673ffffffffffffffffffffffffffffffffffffffff1681526020019081526020016000206001018054610d1f906119c9565b905014610d61576040517f08c379a0000000000000000000000000000000000000000000000000000000008152600401610d58906120b0565b60405180910390fd5b604051806040016040528060001515815260200183838080601f016020809104026020016040519081016040528093929190818152602001838380828437600081840152601f19601f82011690508083019250505050505050815250600960003373ffffffffffffffffffffffffffffffffffffffff1673ffffffffffffffffffffffffffffffffffffffff16815260200190815260200160002060008201518160000160006101000a81548160ff0219169083151502179055506020820151816001019081610e31919061228c565b50905050600a339080600181540180825580915050600190039060005260206000200160009091909190916101000a81548173ffffffffffffffffffffffffffffffffffffffff021916908373ffffffffffffffffffffffffffffffffffffffff16021790555060018060070160018282829054906101000a900461ffff160192506101000a81548161ffff021916908361ffff1602179055503373ffffffffffffffffffffffffffffffffffffffff167f6dc30072a2039a599732aeb9dccb6d7104ca04a99a242777d2dc3b09b56c93198383604051610f1392919061239a565b60405180910390a25050565b6000600960003373ffffffffffffffffffffffffffffffffffffffff1673ffffffffffffffffffffffffffffffffffffffff16815260200190815260200160002060000160009054906101000a900460ff16905090565b6060610f80611353565b6000600a80549050905060008167ffffffffffffffff811115610fa657610fa56120d0565b5b604051908082528060200260200182016040528015610fd957816020015b6060815260200190600190039081610fc45790505b50905060005b8281101561111b5760096000600a8381548110610fff57610ffe6123be565b5b9060005260206000200160009054906101000a900473ffffffffffffffffffffffffffffffffffffffff1673ffffffffffffffffffffffffffffffffffffffff1673ffffffffffffffffffffffffffffffffffffffff1681526020019081526020016000206001018054611072906119c9565b80601f016020809104026020016040519081016040528092919081815260200182805461109e906119c9565b80156110eb5780601f106110c0576101008083540402835291602001916110eb565b820191906000526020600020905b8154815290600101906020018083116110ce57829003601f168201915b5050505050828281518110611103576111026123be565b5b60200260200101819052508080600101915050610fdf565b50809250505090565b6001806000018054611135906119c9565b80601f0160208091040260200160405190810160405280929190818152602001828054611161906119c9565b80156111ae5780601f10611183576101008083540402835291602001916111ae565b820191906000526020600020905b81548152906001019060200180831161119157829003601f168201915b5050505050908060010180546111c3906119c9565b80601f01602080910402602001604051908101604052809291908181526020018280546111ef906119c9565b801561123c5780601f106112115761010080835404028352916020019161123c565b820191906000526020600020905b81548152906001019060200180831161121f57829003601f168201915b5050505050908060020160009054906101000a900461ffff16908060030154908060040154908060050154908060060154908060070160009054906101000a900460ff16908060070160019054906101000a900461ffff16908060070160039054906101000a900460ff1690508a565b6112b4611353565b600073ffffffffffffffffffffffffffffffffffffffff168173ffffffffffffffffffffffffffffffffffffffff1603611323576040517f08c379a000000000000000000000000000000000000000000000000000000000815260040161131a9061245f565b60405180910390fd5b61132c816113d1565b50565b7f000000000000000000000000000000000000000000000000000000000000000081565b61135b611495565b73ffffffffffffffffffffffffffffffffffffffff16611379610b56565b73ffffffffffffffffffffffffffffffffffffffff16146113cf576040517f08c379a00000000000000000000000000000000000000000000000000000000081526004016113c6906124cb565b60405180910390fd5b565b60008060009054906101000a900473ffffffffffffffffffffffffffffffffffffffff169050816000806101000a81548173ffffffffffffffffffffffffffffffffffffffff021916908373ffffffffffffffffffffffffffffffffffffffff1602179055508173ffffffffffffffffffffffffffffffffffffffff168173ffffffffffffffffffffffffffffffffffffffff167f8be0079c531659141344cd1fd0a4f28419497f9722a3daafe3b4186f6b6457e060405160405180910390a35050565b600033905090565b60008115159050919050565b6114b28161149d565b82525050565b60006020820190506114cd60008301846114a9565b92915050565b600081519050919050565b600082825260208201905092915050565b60005b8381101561150d5780820151818401526020810190506114f2565b60008484015250505050565b6000601f19601f8301169050919050565b6000611535826114d3565b61153f81856114de565b935061154f8185602086016114ef565b61155881611519565b840191505092915050565b6000602082019050818103600083015261157d818461152a565b905092915050565b600073ffffffffffffffffffffffffffffffffffffffff82169050919050565b60006115b082611585565b9050919050565b6115c0816115a5565b82525050565b60006020820190506115db60008301846115b7565b92915050565b600080fd5b600080fd5b600080fd5b600080fd5b600080fd5b60008083601f8401126116105761160f6115eb565b5b8235905067ffffffffffffffff81111561162d5761162c6115f0565b5b602083019150836001820283011115611649576116486115f5565b5b9250929050565b60008060208385031215611667576116666115e1565b5b600083013567ffffffffffffffff811115611685576116846115e6565b5b611691858286016115fa565b92509250509250929050565b600081519050919050565b600082825260208201905092915050565b6000819050602082019050919050565b600082825260208201905092915050565b60006116e5826114d3565b6116ef81856116c9565b93506116ff8185602086016114ef565b61170881611519565b840191505092915050565b600061171f83836116da565b905092915050565b6000602082019050919050565b600061173f8261169d565b61174981856116a8565b93508360208202850161175b856116b9565b8060005b8581101561179757848403895281516117788582611713565b945061178383611727565b925060208a0199505060018101905061175f565b50829750879550505050505092915050565b600060208201905081810360008301526117c38184611734565b905092915050565b600061ffff82169050919050565b6117e2816117cb565b82525050565b6000819050919050565b6117fb816117e8565b82525050565b600060ff82169050919050565b61181781611801565b82525050565b6000610140820190508181036000830152611838818d61152a565b9050818103602083015261184c818c61152a565b905061185b604083018b6117d9565b611868606083018a6117f2565b61187560808301896117f2565b61188260a08301886117f2565b61188f60c08301876117f2565b61189c60e083018661180e565b6118aa6101008301856117d9565b6118b86101208301846114a9565b9b9a5050505050505050505050565b6118d0816115a5565b81146118db57600080fd5b50565b6000813590506118ed816118c7565b92915050565b600060208284031215611909576119086115e1565b5b6000611917848285016118de565b91505092915050565b6000819050919050565b600061194561194061193b84611585565b611920565b611585565b9050919050565b60006119578261192a565b9050919050565b60006119698261194c565b9050919050565b6119798161195e565b82525050565b60006020820190506119946000830184611970565b92915050565b7f4e487b7100000000000000000000000000000000000000000000000000000000600052602260045260246000fd5b600060028204905060018216806119e157607f821691505b6020821081036119f4576119f361199a565b5b50919050565b7f4576656e74206973206e6f742061637469766500000000000000000000000000600082015250565b6000611a306013836114de565b9150611a3b826119fa565b602082019050919050565b60006020820190508181036000830152611a5f81611a23565b9050919050565b7f4576656e74206e6f742073746172746564000000000000000000000000000000600082015250565b6000611a9c6011836114de565b9150611aa782611a66565b602082019050919050565b60006020820190508181036000830152611acb81611a8f565b9050919050565b7f4576656e7420656e646564000000000000000000000000000000000000000000600082015250565b6000611b08600b836114de565b9150611b1382611ad2565b602082019050919050565b60006020820190508181036000830152611b3781611afb565b9050919050565b7f4e6f74207369676e656420757000000000000000000000000000000000000000600082015250565b6000611b74600d836114de565b9150611b7f82611b3e565b602082019050919050565b60006020820190508181036000830152611ba381611b67565b9050919050565b7f416c726561647920636865636b656420696e0000000000000000000000000000600082015250565b6000611be06012836114de565b9150611beb82611baa565b602082019050919050565b60006020820190508181036000830152611c0f81611bd3565b9050919050565b6000611c31611c2c611c2784611801565b611920565b6117e8565b9050919050565b611c4181611c16565b82525050565b6000604082019050611c5c60008301856115b7565b611c696020830184611c38565b9392505050565b611c798161149d565b8114611c8457600080fd5b50565b600081519050611c9681611c70565b92915050565b600060208284031215611cb257611cb16115e1565b5b6000611cc084828501611c87565b91505092915050565b7f546f6b656e207472616e73666572206661696c65640000000000000000000000600082015250565b6000611cff6015836114de565b9150611d0a82611cc9565b602082019050919050565b60006020820190508181036000830152611d2e81611cf2565b9050919050565b60008190508160005260206000209050919050565b60008154611d57816119c9565b611d6181866114de565b94506001821660008114611d7c5760018114611d9257611dc5565b60ff198316865281151560200286019350611dc5565b611d9b85611d35565b60005b83811015611dbd57815481890152600182019150602081019050611d9e565b808801955050505b50505092915050565b60006020820190508181036000830152611de88184611d4a565b905092915050565b611df9816117e8565b8114611e0457600080fd5b50565b600081519050611e1681611df0565b92915050565b600060208284031215611e3257611e316115e1565b5b6000611e4084828501611e07565b91505092915050565b600081519050611e58816118c7565b92915050565b600060208284031215611e7457611e736115e1565b5b6000611e8284828501611e49565b91505092915050565b6000604082019050611ea060008301856115b7565b611ead60208301846117f2565b9392505050565b7f417474656e646565206e6f7420666f756e640000000000000000000000000000600082015250565b6000611eea6012836114de565b9150611ef582611eb4565b602082019050919050565b60006020820190508181036000830152611f1981611edd565b9050919050565b7f5369676e7570206e6f7420737461727465640000000000000000000000000000600082015250565b6000611f566012836114de565b9150611f6182611f20565b602082019050919050565b60006020820190508181036000830152611f8581611f49565b9050919050565b7f5369676e757020656e6465640000000000000000000000000000000000000000600082015250565b6000611fc2600c836114de565b9150611fcd82611f8c565b602082019050919050565b60006020820190508181036000830152611ff181611fb5565b9050919050565b7f4576656e742066756c6c00000000000000000000000000000000000000000000600082015250565b600061202e600a836114de565b915061203982611ff8565b602082019050919050565b6000602082019050818103600083015261205d81612021565b9050919050565b7f416c7265616479207369676e6564207570000000000000000000000000000000600082015250565b600061209a6011836114de565b91506120a582612064565b602082019050919050565b600060208201905081810360008301526120c98161208d565b9050919050565b7f4e487b7100000000000000000000000000000000000000000000000000000000600052604160045260246000fd5b60006020601f8301049050919050565b600082821b905092915050565b60006008830261214c7fffffffffffffffffffffffffffffffffffffffffffffffffffffffffffffffff8261210f565b612156868361210f565b95508019841693508086168417925050509392505050565b600061218961218461217f846117e8565b611920565b6117e8565b9050919050565b6000819050919050565b6121a38361216e565b6121b76121af82612190565b84845461211c565b825550505050565b600090565b6121cc6121bf565b6121d781848461219a565b505050565b5b818110156121fb576121f06000826121c4565b6001810190506121dd565b5050565b601f8211156122405761221181611d35565b61221a846120ff565b81016020851015612229578190505b61223d612235856120ff565b8301826121dc565b50505b505050565b600082821c905092915050565b600061226360001984600802612245565b1980831691505092915050565b600061227c8383612252565b9150826002028217905092915050565b612295826114d3565b67ffffffffffffffff8111156122ae576122ad6120d0565b5b6122b882546119c9565b6122c38282856121ff565b600060209050601f8311600181146122f657600084156122e4578287015190505b6122ee8582612270565b865550612356565b601f19841661230486611d35565b60005b8281101561232c57848901518255600182019150602085019450602081019050612307565b868310156123495784890151612345601f891682612252565b8355505b6001600288020188555050505b505050505050565b82818337600083830152505050565b600061237983856114de565b935061238683858461235e565b61238f83611519565b840190509392505050565b600060208201905081810360008301526123b581848661236d565b90509392505050565b7f4e487b7100000000000000000000000000000000000000000000000000000000600052603260045260246000fd5b7f4f776e61626c653a206e6577206f776e657220697320746865207a65726f206160008201527f6464726573730000000000000000000000000000000000000000000000000000602082015250565b60006124496026836114de565b9150612454826123ed565b604082019050919050565b600060208201905081810360008301526124788161243c565b9050919050565b7f4f776e61626c653a2063616c6c6572206973206e6f7420746865206f776e6572600082015250565b60006124b56020836114de565b91506124c08261247f565b602082019050919050565b600060208201905081810360008301526124e4816124a8565b905091905056fea2646970667358221220ffeba478de9c891e7f0fe4496c71ea824da1132cdc498ec18ca27aec2ad93c5764736f6c634300081c0033a2646970667358221220aa23a66bfc28c239968d215457eee9e0ee9719d4d705c4c91bbf1a408efdae0364736f6c634300081c0033",
  "linkReferences": {},
  "deployedLinkReferences": {}
}