{
  "contracts/EventSignup.sol": {
    "EventSignup": {
      "abi": [
        {
          "inputs": [
            {
              "internalType": "string",
              "name": "_name",
              "type": "string"
            },
            {
              "internalType": "string",
              "name": "_description",
              "type": "string"
            },
            {
              "internalType": "uint256",
              "name": "_maxCapacity",
              "type": "uint256"
            },
            {
              "internalType": "uint256",
              "name": "_signupStartTime",
              "type": "uint256"
            },
            {
              "internalType": "uint256",
              "name": "_signupEndTime",
              "type": "uint256"
            },
            {
              "internalType": "uint256",
              "name": "_redemptionTime",
              "type": "uint256"
            }
          ],
          "stateMutability": "nonpayable",
          "type": "constructor"
        },
        {
          "anonymous": false,
          "inputs": [
            {
              "indexed": false,
              "internalType": "string",
              "name": "name",
              "type": "string"
            },
            {
              "indexed": false,
              "internalType": "uint256",
              "name": "maxCapacity",
              "type": "uint256"
            },
            {
              "indexed": false,
              "internalType": "uint256",
              "name": "signupStartTime",
              "type": "uint256"
            },
            {
              "indexed": false,
              "internalType": "uint256",
              "name": "signupEndTime",
              "type": "uint256"
            },
            {
              "indexed": false,
              "internalType": "uint256",
              "name": "redemptionTime",
              "type": "uint256"
            }
          ],
          "name": "EventCreated",
          "type": "event"
        },
        {
          "anonymous": false,
          "inputs": [
            {
              "indexed": true,
              "internalType": "address",
              "name": "attendee",
              "type": "address"
            }
          ],
          "name": "SignedUp",
          "type": "event"
        },
        {
          "inputs": [
            {
              "internalType": "address",
              "name": "",
              "type": "address"
            }
          ],
          "name": "attendees",
          "outputs": [
            {
              "internalType": "bool",
              "name": "",
              "type": "bool"
            }
          ],
          "stateMutability": "view",
          "type": "function"
        },
        {
          "inputs": [],
          "name": "eventDetails",
          "outputs": [
            {
              "internalType": "string",
              "name": "name",
              "type": "string"
            },
            {
              "internalType": "string",
              "name": "description",
              "type": "string"
            },
            {
              "internalType": "uint256",
              "name": "maxCapacity",
              "type": "uint256"
            },
            {
              "internalType": "uint256",
              "name": "signupStartTime",
              "type": "uint256"
            },
            {
              "internalType": "uint256",
              "name": "signupEndTime",
              "type": "uint256"
            },
            {
              "internalType": "uint256",
              "name": "redemptionTime",
              "type": "uint256"
            },
            {
              "internalType": "address",
              "name": "creator",
              "type": "address"
            },
            {
              "internalType": "uint256",
              "name": "attendeeCount",
              "type": "uint256"
            }
          ],
          "stateMutability": "view",
          "type": "function"
        },
        {
          "inputs": [],
          "name": "signUp",
          "outputs": [],
          "stateMutability": "nonpayable",
          "type": "function"
        }
      ],
      "evm": {
        "bytecode": {
          "linkReferences": {},
          "object": "608060405234801561001057600080fd5b50604051611301380380611301833981810160405281019061003291906103ee565b828282818310610077576040517f08c379a000000000000000000000000000000000000000000000000000000000815260040161006e90610536565b60405180910390fd5b8082106100b9576040517f08c379a00000000000000000000000000000000000000000000000000000000081526004016100b0906105c8565b60405180910390fd5b600087116100fc576040517f08c379a00000000000000000000000000000000000000000000000000000000081526004016100f390610634565b60405180910390fd5b6040518061010001604052808a81526020018981526020018881526020018781526020018681526020018581526020013373ffffffffffffffffffffffffffffffffffffffff1681526020016000815250600080820151816000019081610163919061086b565b506020820151816001019081610179919061086b565b5060408201518160020155606082015181600301556080820151816004015560a0820151816005015560c08201518160060160006101000a81548173ffffffffffffffffffffffffffffffffffffffff021916908373ffffffffffffffffffffffffffffffffffffffff16021790555060e082015181600701559050507f61ebadddd88498dbac748b69db4c1ef1f42ddd6f29ca1a24156ac2a375f54026898888888860405161022d959493929190610985565b60405180910390a15050505050505050506109df565b6000604051905090565b600080fd5b600080fd5b600080fd5b600080fd5b6000601f19601f8301169050919050565b7f4e487b7100000000000000000000000000000000000000000000000000000000600052604160045260246000fd5b6102aa82610261565b810181811067ffffffffffffffff821117156102c9576102c8610272565b5b80604052505050565b60006102dc610243565b90506102e882826102a1565b919050565b600067ffffffffffffffff82111561030857610307610272565b5b61031182610261565b9050602081019050919050565b60005b8381101561033c578082015181840152602081019050610321565b60008484015250505050565b600061035b610356846102ed565b6102d2565b9050828152602081018484840111156103775761037661025c565b5b61038284828561031e565b509392505050565b600082601f83011261039f5761039e610257565b5b81516103af848260208601610348565b91505092915050565b6000819050919050565b6103cb816103b8565b81146103d657600080fd5b50565b6000815190506103e8816103c2565b92915050565b60008060008060008060c0878903121561040b5761040a61024d565b5b600087015167ffffffffffffffff81111561042957610428610252565b5b61043589828a0161038a565b965050602087015167ffffffffffffffff81111561045657610455610252565b5b61046289828a0161038a565b955050604061047389828a016103d9565b945050606061048489828a016103d9565b935050608061049589828a016103d9565b92505060a06104a689828a016103d9565b9150509295509295509295565b600082825260208201905092915050565b7f5369676e75702073746172742074696d65206d757374206265206265666f726560008201527f207369676e757020656e642074696d6500000000000000000000000000000000602082015250565b60006105206030836104b3565b915061052b826104c4565b604082019050919050565b6000602082019050818103600083015261054f81610513565b9050919050565b7f5369676e757020656e642074696d65206d757374206265206265666f7265207260008201527f6564656d7074696f6e2074696d65000000000000000000000000000000000000602082015250565b60006105b2602e836104b3565b91506105bd82610556565b604082019050919050565b600060208201905081810360008301526105e1816105a5565b9050919050565b7f4361706163697479206d7573742062652067726561746572207468616e203000600082015250565b600061061e601f836104b3565b9150610629826105e8565b602082019050919050565b6000602082019050818103600083015261064d81610611565b9050919050565b600081519050919050565b7f4e487b7100000000000000000000000000000000000000000000000000000000600052602260045260246000fd5b600060028204905060018216806106a657607f821691505b6020821081036106b9576106b861065f565b5b50919050565b60008190508160005260206000209050919050565b60006020601f8301049050919050565b600082821b905092915050565b6000600883026107217fffffffffffffffffffffffffffffffffffffffffffffffffffffffffffffffff826106e4565b61072b86836106e4565b95508019841693508086168417925050509392505050565b6000819050919050565b600061076861076361075e846103b8565b610743565b6103b8565b9050919050565b6000819050919050565b6107828361074d565b61079661078e8261076f565b8484546106f1565b825550505050565b600090565b6107ab61079e565b6107b6818484610779565b505050565b5b818110156107da576107cf6000826107a3565b6001810190506107bc565b5050565b601f82111561081f576107f0816106bf565b6107f9846106d4565b81016020851015610808578190505b61081c610814856106d4565b8301826107bb565b50505b505050565b600082821c905092915050565b600061084260001984600802610824565b1980831691505092915050565b600061085b8383610831565b9150826002028217905092915050565b61087482610654565b67ffffffffffffffff81111561088d5761088c610272565b5b610897825461068e565b6108a28282856107de565b600060209050601f8311600181146108d557600084156108c3578287015190505b6108cd858261084f565b865550610935565b601f1984166108e3866106bf565b60005b8281101561090b578489015182556001820191506020850194506020810190506108e6565b868310156109285784890151610924601f891682610831565b8355505b6001600288020188555050505b505050505050565b600061094882610654565b61095281856104b3565b935061096281856020860161031e565b61096b81610261565b840191505092915050565b61097f816103b8565b82525050565b600060a082019050818103600083015261099f818861093d565b90506109ae6020830187610976565b6109bb6040830186610976565b6109c86060830185610976565b6109d56080830184610976565b9695505050505050565b610913806109ee6000396000f3fe608060405234801561001057600080fd5b50600436106100415760003560e01c8063396dc85414610046578063bf96ae6314610076578063f1386cd614610080575b600080fd5b610060600480360381019061005b91906104af565b6100a5565b60405161006d91906104f7565b60405180910390f35b61007e6100c5565b005b6100886102e6565b60405161009c9897969594939291906105ca565b60405180910390f35b60086020528060005260406000206000915054906101000a900460ff1681565b60006003015442101561010d576040517f08c379a0000000000000000000000000000000000000000000000000000000008152600401610104906106a2565b60405180910390fd5b600060040154421115610155576040517f08c379a000000000000000000000000000000000000000000000000000000000815260040161014c9061070e565b60405180910390fd5b600060020154600060070154106101a1576040517f08c379a00000000000000000000000000000000000000000000000000000000081526004016101989061077a565b60405180910390fd5b600860003373ffffffffffffffffffffffffffffffffffffffff1673ffffffffffffffffffffffffffffffffffffffff16815260200190815260200160002060009054906101000a900460ff161561022e576040517f08c379a0000000000000000000000000000000000000000000000000000000008152600401610225906107e6565b60405180910390fd5b6001600860003373ffffffffffffffffffffffffffffffffffffffff1673ffffffffffffffffffffffffffffffffffffffff16815260200190815260200160002060006101000a81548160ff0219169083151502179055506000600701600081548092919061029c90610835565b91905055503373ffffffffffffffffffffffffffffffffffffffff167fd9c2457acc5ccd00ec03bc7bd9d6017ac7fd390fa4d58a529ea2b07ccf158dc860405160405180910390a2565b60008060000180546102f7906108ac565b80601f0160208091040260200160405190810160405280929190818152602001828054610323906108ac565b80156103705780601f1061034557610100808354040283529160200191610370565b820191906000526020600020905b81548152906001019060200180831161035357829003601f168201915b505050505090806001018054610385906108ac565b80601f01602080910402602001604051908101604052809291908181526020018280546103b1906108ac565b80156103fe5780601f106103d3576101008083540402835291602001916103fe565b820191906000526020600020905b8154815290600101906020018083116103e157829003601f168201915b5050505050908060020154908060030154908060040154908060050154908060060160009054906101000a900473ffffffffffffffffffffffffffffffffffffffff16908060070154905088565b600080fd5b600073ffffffffffffffffffffffffffffffffffffffff82169050919050565b600061047c82610451565b9050919050565b61048c81610471565b811461049757600080fd5b50565b6000813590506104a981610483565b92915050565b6000602082840312156104c5576104c461044c565b5b60006104d38482850161049a565b91505092915050565b60008115159050919050565b6104f1816104dc565b82525050565b600060208201905061050c60008301846104e8565b92915050565b600081519050919050565b600082825260208201905092915050565b60005b8381101561054c578082015181840152602081019050610531565b60008484015250505050565b6000601f19601f8301169050919050565b600061057482610512565b61057e818561051d565b935061058e81856020860161052e565b61059781610558565b840191505092915050565b6000819050919050565b6105b5816105a2565b82525050565b6105c481610471565b82525050565b60006101008201905081810360008301526105e5818b610569565b905081810360208301526105f9818a610569565b905061060860408301896105ac565b61061560608301886105ac565b61062260808301876105ac565b61062f60a08301866105ac565b61063c60c08301856105bb565b61064960e08301846105ac565b9998505050505050505050565b7f5369676e757020686173206e6f74207374617274656420796574000000000000600082015250565b600061068c601a8361051d565b915061069782610656565b602082019050919050565b600060208201905081810360008301526106bb8161067f565b9050919050565b7f5369676e75702068617320656e64656400000000000000000000000000000000600082015250565b60006106f860108361051d565b9150610703826106c2565b602082019050919050565b60006020820190508181036000830152610727816106eb565b9050919050565b7f4576656e742069732066756c6c00000000000000000000000000000000000000600082015250565b6000610764600d8361051d565b915061076f8261072e565b602082019050919050565b6000602082019050818103600083015261079381610757565b9050919050565b7f416c7265616479207369676e6564207570000000000000000000000000000000600082015250565b60006107d060118361051d565b91506107db8261079a565b602082019050919050565b600060208201905081810360008301526107ff816107c3565b9050919050565b7f4e487b7100000000000000000000000000000000000000000000000000000000600052601160045260246000fd5b6000610840826105a2565b91507fffffffffffffffffffffffffffffffffffffffffffffffffffffffffffffffff820361087257610871610806565b5b600182019050919050565b7f4e487b7100000000000000000000000000000000000000000000000000000000600052602260045260246000fd5b600060028204905060018216806108c457607f821691505b6020821081036108d7576108d661087d565b5b5091905056fea264697066735822122001cb4935e97c75aed7e3236cb9891af9a55b396a28fec57bfd67e38e27b61dce64736f6c634300081c0033",
          "opcodes": "PUSH1 0x80 PUSH1 0x40 MSTORE CALLVALUE DUP1 ISZERO PUSH2 0x10 JUMPI PUSH1 0x0 DUP1 REVERT JUMPDEST POP PUSH1 0x40 MLOAD PUSH2 0x1301 CODESIZE SUB DUP1 PUSH2 0x1301 DUP4 CODECOPY DUP2 DUP2 ADD PUSH1 0x40 MSTORE DUP2 ADD SWAP1 PUSH2 0x32 SWAP2 SWAP1 PUSH2 0x3EE JUMP JUMPDEST DUP3 DUP3 DUP3 DUP2 DUP4 LT PUSH2 0x77 JUMPI PUSH1 0x40 MLOAD PUSH32 0x8C379A000000000000000000000000000000000000000000000000000000000 DUP2 MSTORE PUSH1 0x4 ADD PUSH2 0x6E SWAP1 PUSH2 0x536 JUMP JUMPDEST PUSH1 0x40 MLOAD DUP1 SWAP2 SUB SWAP1 REVERT JUMPDEST DUP1 DUP3 LT PUSH2 0xB9 JUMPI PUSH1 0x40 MLOAD PUSH32 0x8C379A000000000000000000000000000000000000000000000000000000000 DUP2 MSTORE PUSH1 0x4 ADD PUSH2 0xB0 SWAP1 PUSH2 0x5C8 JUMP JUMPDEST PUSH1 0x40 MLOAD DUP1 SWAP2 SUB SWAP1 REVERT JUMPDEST PUSH1 0x0 DUP8 GT PUSH2 0xFC JUMPI PUSH1 0x40 MLOAD PUSH32 0x8C379A000000000000000000000000000000000000000000000000000000000 DUP2 MSTORE PUSH1 0x4 ADD PUSH2 0xF3 SWAP1 PUSH2 0x634 JUMP JUMPDEST PUSH1 0x40 MLOAD DUP1 SWAP2 SUB SWAP1 REVERT JUMPDEST PUSH1 0x40 MLOAD DUP1 PUSH2 0x100 ADD PUSH1 0x40 MSTORE DUP1 DUP11 DUP2 MSTORE PUSH1 0x20 ADD DUP10 DUP2 MSTORE PUSH1 0x20 ADD DUP9 DUP2 MSTORE PUSH1 0x20 ADD DUP8 DUP2 MSTORE PUSH1 0x20 ADD DUP7 DUP2 MSTORE PUSH1 0x20 ADD DUP6 DUP2 MSTORE PUSH1 0x20 ADD CALLER PUSH20 0xFFFFFFFFFFFFFFFFFFFFFFFFFFFFFFFFFFFFFFFF AND DUP2 MSTORE PUSH1 0x20 ADD PUSH1 0x0 DUP2 MSTORE POP PUSH1 0x0 DUP1 DUP3 ADD MLOAD DUP2 PUSH1 0x0 ADD SWAP1 DUP2 PUSH2 0x163 SWAP2 SWAP1 PUSH2 0x86B JUMP JUMPDEST POP PUSH1 0x20 DUP3 ADD MLOAD DUP2 PUSH1 0x1 ADD SWAP1 DUP2 PUSH2 0x179 SWAP2 SWAP1 PUSH2 0x86B JUMP JUMPDEST POP PUSH1 0x40 DUP3 ADD MLOAD DUP2 PUSH1 0x2 ADD SSTORE PUSH1 0x60 DUP3 ADD MLOAD DUP2 PUSH1 0x3 ADD SSTORE PUSH1 0x80 DUP3 ADD MLOAD DUP2 PUSH1 0x4 ADD SSTORE PUSH1 0xA0 DUP3 ADD MLOAD DUP2 PUSH1 0x5 ADD SSTORE PUSH1 0xC0 DUP3 ADD MLOAD DUP2 PUSH1 0x6 ADD PUSH1 0x0 PUSH2 0x100 EXP DUP2 SLOAD DUP2 PUSH20 0xFFFFFFFFFFFFFFFFFFFFFFFFFFFFFFFFFFFFFFFF MUL NOT AND SWAP1 DUP4 PUSH20 0xFFFFFFFFFFFFFFFFFFFFFFFFFFFFFFFFFFFFFFFF AND MUL OR SWAP1 SSTORE POP PUSH1 0xE0 DUP3 ADD MLOAD DUP2 PUSH1 0x7 ADD SSTORE SWAP1 POP POP PUSH32 0x61EBADDDD88498DBAC748B69DB4C1EF1F42DDD6F29CA1A24156AC2A375F54026 DUP10 DUP9 DUP9 DUP9 DUP9 PUSH1 0x40 MLOAD PUSH2 0x22D SWAP6 SWAP5 SWAP4 SWAP3 SWAP2 SWAP1 PUSH2 0x985 JUMP JUMPDEST PUSH1 0x40 MLOAD DUP1 SWAP2 SUB SWAP1 LOG1 POP POP POP POP POP POP POP POP POP PUSH2 0x9DF JUMP JUMPDEST PUSH1 0x0 PUSH1 0x40 MLOAD SWAP1 POP SWAP1 JUMP JUMPDEST PUSH1 0x0 DUP1 REVERT JUMPDEST PUSH1 0x0 DUP1 REVERT JUMPDEST PUSH1 0x0 DUP1 REVERT JUMPDEST PUSH1 0x0 DUP1 REVERT JUMPDEST PUSH1 0x0 PUSH1 0x1F NOT PUSH1 0x1F DUP4 ADD AND SWAP1 POP SWAP2 SWAP1 POP JUMP JUMPDEST PUSH32 0x4E487B7100000000000000000000000000000000000000000000000000000000 PUSH1 0x0 MSTORE PUSH1 0x41 PUSH1 0x4 MSTORE PUSH1 0x24 PUSH1 0x0 REVERT JUMPDEST PUSH2 0x2AA DUP3 PUSH2 0x261 JUMP JUMPDEST DUP2 ADD DUP2 DUP2 LT PUSH8 0xFFFFFFFFFFFFFFFF DUP3 GT OR ISZERO PUSH2 0x2C9 JUMPI PUSH2 0x2C8 PUSH2 0x272 JUMP JUMPDEST JUMPDEST DUP1 PUSH1 0x40 MSTORE POP POP POP JUMP JUMPDEST PUSH1 0x0 PUSH2 0x2DC PUSH2 0x243 JUMP JUMPDEST SWAP1 POP PUSH2 0x2E8 DUP3 DUP3 PUSH2 0x2A1 JUMP JUMPDEST SWAP2 SWAP1 POP JUMP JUMPDEST PUSH1 0x0 PUSH8 0xFFFFFFFFFFFFFFFF DUP3 GT ISZERO PUSH2 0x308 JUMPI PUSH2 0x307 PUSH2 0x272 JUMP JUMPDEST JUMPDEST PUSH2 0x311 DUP3 PUSH2 0x261 JUMP JUMPDEST SWAP1 POP PUSH1 0x20 DUP2 ADD SWAP1 POP SWAP2 SWAP1 POP JUMP JUMPDEST PUSH1 0x0 JUMPDEST DUP4 DUP2 LT ISZERO PUSH2 0x33C JUMPI DUP1 DUP3 ADD MLOAD DUP2 DUP5 ADD MSTORE PUSH1 0x20 DUP2 ADD SWAP1 POP PUSH2 0x321 JUMP JUMPDEST PUSH1 0x0 DUP5 DUP5 ADD MSTORE POP POP POP POP JUMP JUMPDEST PUSH1 0x0 PUSH2 0x35B PUSH2 0x356 DUP5 PUSH2 0x2ED JUMP JUMPDEST PUSH2 0x2D2 JUMP JUMPDEST SWAP1 POP DUP3 DUP2 MSTORE PUSH1 0x20 DUP2 ADD DUP5 DUP5 DUP5 ADD GT ISZERO PUSH2 0x377 JUMPI PUSH2 0x376 PUSH2 0x25C JUMP JUMPDEST JUMPDEST PUSH2 0x382 DUP5 DUP3 DUP6 PUSH2 0x31E JUMP JUMPDEST POP SWAP4 SWAP3 POP POP POP JUMP JUMPDEST PUSH1 0x0 DUP3 PUSH1 0x1F DUP4 ADD SLT PUSH2 0x39F JUMPI PUSH2 0x39E PUSH2 0x257 JUMP JUMPDEST JUMPDEST DUP2 MLOAD PUSH2 0x3AF DUP5 DUP3 PUSH1 0x20 DUP7 ADD PUSH2 0x348 JUMP JUMPDEST SWAP2 POP POP SWAP3 SWAP2 POP POP JUMP JUMPDEST PUSH1 0x0 DUP2 SWAP1 POP SWAP2 SWAP1 POP JUMP JUMPDEST PUSH2 0x3CB DUP2 PUSH2 0x3B8 JUMP JUMPDEST DUP2 EQ PUSH2 0x3D6 JUMPI PUSH1 0x0 DUP1 REVERT JUMPDEST POP JUMP JUMPDEST PUSH1 0x0 DUP2 MLOAD SWAP1 POP PUSH2 0x3E8 DUP2 PUSH2 0x3C2 JUMP JUMPDEST SWAP3 SWAP2 POP POP JUMP JUMPDEST PUSH1 0x0 DUP1 PUSH1 0x0 DUP1 PUSH1 0x0 DUP1 PUSH1 0xC0 DUP8 DUP10 SUB SLT ISZERO PUSH2 0x40B JUMPI PUSH2 0x40A PUSH2 0x24D JUMP JUMPDEST JUMPDEST PUSH1 0x0 DUP8 ADD MLOAD PUSH8 0xFFFFFFFFFFFFFFFF DUP2 GT ISZERO PUSH2 0x429 JUMPI PUSH2 0x428 PUSH2 0x252 JUMP JUMPDEST JUMPDEST PUSH2 0x435 DUP10 DUP3 DUP11 ADD PUSH2 0x38A JUMP JUMPDEST SWAP7 POP POP PUSH1 0x20 DUP8 ADD MLOAD PUSH8 0xFFFFFFFFFFFFFFFF DUP2 GT ISZERO PUSH2 0x456 JUMPI PUSH2 0x455 PUSH2 0x252 JUMP JUMPDEST JUMPDEST PUSH2 0x462 DUP10 DUP3 DUP11 ADD PUSH2 0x38A JUMP JUMPDEST SWAP6 POP POP PUSH1 0x40 PUSH2 0x473 DUP10 DUP3 DUP11 ADD PUSH2 0x3D9 JUMP JUMPDEST SWAP5 POP POP PUSH1 0x60 PUSH2 0x484 DUP10 DUP3 DUP11 ADD PUSH2 0x3D9 JUMP JUMPDEST SWAP4 POP POP PUSH1 0x80 PUSH2 0x495 DUP10 DUP3 DUP11 ADD PUSH2 0x3D9 JUMP JUMPDEST SWAP3 POP POP PUSH1 0xA0 PUSH2 0x4A6 DUP10 DUP3 DUP11 ADD PUSH2 0x3D9 JUMP JUMPDEST SWAP2 POP POP SWAP3 SWAP6 POP SWAP3 SWAP6 POP SWAP3 SWAP6 JUMP JUMPDEST PUSH1 0x0 DUP3 DUP3 MSTORE PUSH1 0x20 DUP3 ADD SWAP1 POP SWAP3 SWAP2 POP POP JUMP JUMPDEST PUSH32 0x5369676E75702073746172742074696D65206D757374206265206265666F7265 PUSH1 0x0 DUP3 ADD MSTORE PUSH32 0x207369676E757020656E642074696D6500000000000000000000000000000000 PUSH1 0x20 DUP3 ADD MSTORE POP JUMP JUMPDEST PUSH1 0x0 PUSH2 0x520 PUSH1 0x30 DUP4 PUSH2 0x4B3 JUMP JUMPDEST SWAP2 POP PUSH2 0x52B DUP3 PUSH2 0x4C4 JUMP JUMPDEST PUSH1 0x40 DUP3 ADD SWAP1 POP SWAP2 SWAP1 POP JUMP JUMPDEST PUSH1 0x0 PUSH1 0x20 DUP3 ADD SWAP1 POP DUP2 DUP2 SUB PUSH1 0x0 DUP4 ADD MSTORE PUSH2 0x54F DUP2 PUSH2 0x513 JUMP JUMPDEST SWAP1 POP SWAP2 SWAP1 POP JUMP JUMPDEST PUSH32 0x5369676E757020656E642074696D65206D757374206265206265666F72652072 PUSH1 0x0 DUP3 ADD MSTORE PUSH32 0x6564656D7074696F6E2074696D65000000000000000000000000000000000000 PUSH1 0x20 DUP3 ADD MSTORE POP JUMP JUMPDEST PUSH1 0x0 PUSH2 0x5B2 PUSH1 0x2E DUP4 PUSH2 0x4B3 JUMP JUMPDEST SWAP2 POP PUSH2 0x5BD DUP3 PUSH2 0x556 JUMP JUMPDEST PUSH1 0x40 DUP3 ADD SWAP1 POP SWAP2 SWAP1 POP JUMP JUMPDEST PUSH1 0x0 PUSH1 0x20 DUP3 ADD SWAP1 POP DUP2 DUP2 SUB PUSH1 0x0 DUP4 ADD MSTORE PUSH2 0x5E1 DUP2 PUSH2 0x5A5 JUMP JUMPDEST SWAP1 POP SWAP2 SWAP1 POP JUMP JUMPDEST PUSH32 0x4361706163697479206D7573742062652067726561746572207468616E203000 PUSH1 0x0 DUP3 ADD MSTORE POP JUMP JUMPDEST PUSH1 0x0 PUSH2 0x61E PUSH1 0x1F DUP4 PUSH2 0x4B3 JUMP JUMPDEST SWAP2 POP PUSH2 0x629 DUP3 PUSH2 0x5E8 JUMP JUMPDEST PUSH1 0x20 DUP3 ADD SWAP1 POP SWAP2 SWAP1 POP JUMP JUMPDEST PUSH1 0x0 PUSH1 0x20 DUP3 ADD SWAP1 POP DUP2 DUP2 SUB PUSH1 0x0 DUP4 ADD MSTORE PUSH2 0x64D DUP2 PUSH2 0x611 JUMP JUMPDEST SWAP1 POP SWAP2 SWAP1 POP JUMP JUMPDEST PUSH1 0x0 DUP2 MLOAD SWAP1 POP SWAP2 SWAP1 POP JUMP JUMPDEST PUSH32 0x4E487B7100000000000000000000000000000000000000000000000000000000 PUSH1 0x0 MSTORE PUSH1 0x22 PUSH1 0x4 MSTORE PUSH1 0x24 PUSH1 0x0 REVERT JUMPDEST PUSH1 0x0 PUSH1 0x2 DUP3 DIV SWAP1 POP PUSH1 0x1 DUP3 AND DUP1 PUSH2 0x6A6 JUMPI PUSH1 0x7F DUP3 AND SWAP2 POP JUMPDEST PUSH1 0x20 DUP3 LT DUP2 SUB PUSH2 0x6B9 JUMPI PUSH2 0x6B8 PUSH2 0x65F JUMP JUMPDEST JUMPDEST POP SWAP2 SWAP1 POP JUMP JUMPDEST PUSH1 0x0 DUP2 SWAP1 POP DUP2 PUSH1 0x0 MSTORE PUSH1 0x20 PUSH1 0x0 KECCAK256 SWAP1 POP SWAP2 SWAP1 POP JUMP JUMPDEST PUSH1 0x0 PUSH1 0x20 PUSH1 0x1F DUP4 ADD DIV SWAP1 POP SWAP2 SWAP1 POP JUMP JUMPDEST PUSH1 0x0 DUP3 DUP3 SHL SWAP1 POP SWAP3 SWAP2 POP POP JUMP JUMPDEST PUSH1 0x0 PUSH1 0x8 DUP4 MUL PUSH2 0x721 PUSH32 0xFFFFFFFFFFFFFFFFFFFFFFFFFFFFFFFFFFFFFFFFFFFFFFFFFFFFFFFFFFFFFFFF DUP3 PUSH2 0x6E4 JUMP JUMPDEST PUSH2 0x72B DUP7 DUP4 PUSH2 0x6E4 JUMP JUMPDEST SWAP6 POP DUP1 NOT DUP5 AND SWAP4 POP DUP1 DUP7 AND DUP5 OR SWAP3 POP POP POP SWAP4 SWAP3 POP POP POP JUMP JUMPDEST PUSH1 0x0 DUP2 SWAP1 POP SWAP2 SWAP1 POP JUMP JUMPDEST PUSH1 0x0 PUSH2 0x768 PUSH2 0x763 PUSH2 0x75E DUP5 PUSH2 0x3B8 JUMP JUMPDEST PUSH2 0x743 JUMP JUMPDEST PUSH2 0x3B8 JUMP JUMPDEST SWAP1 POP SWAP2 SWAP1 POP JUMP JUMPDEST PUSH1 0x0 DUP2 SWAP1 POP SWAP2 SWAP1 POP JUMP JUMPDEST PUSH2 0x782 DUP4 PUSH2 0x74D JUMP JUMPDEST PUSH2 0x796 PUSH2 0x78E DUP3 PUSH2 0x76F JUMP JUMPDEST DUP5 DUP5 SLOAD PUSH2 0x6F1 JUMP JUMPDEST DUP3 SSTORE POP POP POP POP JUMP JUMPDEST PUSH1 0x0 SWAP1 JUMP JUMPDEST PUSH2 0x7AB PUSH2 0x79E JUMP JUMPDEST PUSH2 0x7B6 DUP2 DUP5 DUP5 PUSH2 0x779 JUMP JUMPDEST POP POP POP JUMP JUMPDEST JUMPDEST DUP2 DUP2 LT ISZERO PUSH2 0x7DA JUMPI PUSH2 0x7CF PUSH1 0x0 DUP3 PUSH2 0x7A3 JUMP JUMPDEST PUSH1 0x1 DUP2 ADD SWAP1 POP PUSH2 0x7BC JUMP JUMPDEST POP POP JUMP JUMPDEST PUSH1 0x1F DUP3 GT ISZERO PUSH2 0x81F JUMPI PUSH2 0x7F0 DUP2 PUSH2 0x6BF JUMP JUMPDEST PUSH2 0x7F9 DUP5 PUSH2 0x6D4 JUMP JUMPDEST DUP2 ADD PUSH1 0x20 DUP6 LT ISZERO PUSH2 0x808 JUMPI DUP2 SWAP1 POP JUMPDEST PUSH2 0x81C PUSH2 0x814 DUP6 PUSH2 0x6D4 JUMP JUMPDEST DUP4 ADD DUP3 PUSH2 0x7BB JUMP JUMPDEST POP POP JUMPDEST POP POP POP JUMP JUMPDEST PUSH1 0x0 DUP3 DUP3 SHR SWAP1 POP SWAP3 SWAP2 POP POP JUMP JUMPDEST PUSH1 0x0 PUSH2 0x842 PUSH1 0x0 NOT DUP5 PUSH1 0x8 MUL PUSH2 0x824 JUMP JUMPDEST NOT DUP1 DUP4 AND SWAP2 POP POP SWAP3 SWAP2 POP POP JUMP JUMPDEST PUSH1 0x0 PUSH2 0x85B DUP4 DUP4 PUSH2 0x831 JUMP JUMPDEST SWAP2 POP DUP3 PUSH1 0x2 MUL DUP3 OR SWAP1 POP SWAP3 SWAP2 POP POP JUMP JUMPDEST PUSH2 0x874 DUP3 PUSH2 0x654 JUMP JUMPDEST PUSH8 0xFFFFFFFFFFFFFFFF DUP2 GT ISZERO PUSH2 0x88D JUMPI PUSH2 0x88C PUSH2 0x272 JUMP JUMPDEST JUMPDEST PUSH2 0x897 DUP3 SLOAD PUSH2 0x68E JUMP JUMPDEST PUSH2 0x8A2 DUP3 DUP3 DUP6 PUSH2 0x7DE JUMP JUMPDEST PUSH1 0x0 PUSH1 0x20 SWAP1 POP PUSH1 0x1F DUP4 GT PUSH1 0x1 DUP2 EQ PUSH2 0x8D5 JUMPI PUSH1 0x0 DUP5 ISZERO PUSH2 0x8C3 JUMPI DUP3 DUP8 ADD MLOAD SWAP1 POP JUMPDEST PUSH2 0x8CD DUP6 DUP3 PUSH2 0x84F JUMP JUMPDEST DUP7 SSTORE POP PUSH2 0x935 JUMP JUMPDEST PUSH1 0x1F NOT DUP5 AND PUSH2 0x8E3 DUP7 PUSH2 0x6BF JUMP JUMPDEST PUSH1 0x0 JUMPDEST DUP3 DUP2 LT ISZERO PUSH2 0x90B JUMPI DUP5 DUP10 ADD MLOAD DUP3 SSTORE PUSH1 0x1 DUP3 ADD SWAP2 POP PUSH1 0x20 DUP6 ADD SWAP5 POP PUSH1 0x20 DUP2 ADD SWAP1 POP PUSH2 0x8E6 JUMP JUMPDEST DUP7 DUP4 LT ISZERO PUSH2 0x928 JUMPI DUP5 DUP10 ADD MLOAD PUSH2 0x924 PUSH1 0x1F DUP10 AND DUP3 PUSH2 0x831 JUMP JUMPDEST DUP4 SSTORE POP JUMPDEST PUSH1 0x1 PUSH1 0x2 DUP9 MUL ADD DUP9 SSTORE POP POP POP JUMPDEST POP POP POP POP POP POP JUMP JUMPDEST PUSH1 0x0 PUSH2 0x948 DUP3 PUSH2 0x654 JUMP JUMPDEST PUSH2 0x952 DUP2 DUP6 PUSH2 0x4B3 JUMP JUMPDEST SWAP4 POP PUSH2 0x962 DUP2 DUP6 PUSH1 0x20 DUP7 ADD PUSH2 0x31E JUMP JUMPDEST PUSH2 0x96B DUP2 PUSH2 0x261 JUMP JUMPDEST DUP5 ADD SWAP2 POP POP SWAP3 SWAP2 POP POP JUMP JUMPDEST PUSH2 0x97F DUP2 PUSH2 0x3B8 JUMP JUMPDEST DUP3 MSTORE POP POP JUMP JUMPDEST PUSH1 0x0 PUSH1 0xA0 DUP3 ADD SWAP1 POP DUP2 DUP2 SUB PUSH1 0x0 DUP4 ADD MSTORE PUSH2 0x99F DUP2 DUP9 PUSH2 0x93D JUMP JUMPDEST SWAP1 POP PUSH2 0x9AE PUSH1 0x20 DUP4 ADD DUP8 PUSH2 0x976 JUMP JUMPDEST PUSH2 0x9BB PUSH1 0x40 DUP4 ADD DUP7 PUSH2 0x976 JUMP JUMPDEST PUSH2 0x9C8 PUSH1 0x60 DUP4 ADD DUP6 PUSH2 0x976 JUMP JUMPDEST PUSH2 0x9D5 PUSH1 0x80 DUP4 ADD DUP5 PUSH2 0x976 JUMP JUMPDEST SWAP7 SWAP6 POP POP POP POP POP POP JUMP JUMPDEST PUSH2 0x913 DUP1 PUSH2 0x9EE PUSH1 0x0 CODECOPY PUSH1 0x0 RETURN INVALID PUSH1 0x80 PUSH1 0x40 MSTORE CALLVALUE DUP1 ISZERO PUSH2 0x10 JUMPI PUSH1 0x0 DUP1 REVERT JUMPDEST POP PUSH1 0x4 CALLDATASIZE LT PUSH2 0x41 JUMPI PUSH1 0x0 CALLDATALOAD PUSH1 0xE0 SHR DUP1 PUSH4 0x396DC854 EQ PUSH2 0x46 JUMPI DUP1 PUSH4 0xBF96AE63 EQ PUSH2 0x76 JUMPI DUP1 PUSH4 0xF1386CD6 EQ PUSH2 0x80 JUMPI JUMPDEST PUSH1 0x0 DUP1 REVERT JUMPDEST PUSH2 0x60 PUSH1 0x4 DUP1 CALLDATASIZE SUB DUP2 ADD SWAP1 PUSH2 0x5B SWAP2 SWAP1 PUSH2 0x4AF JUMP JUMPDEST PUSH2 0xA5 JUMP JUMPDEST PUSH1 0x40 MLOAD PUSH2 0x6D SWAP2 SWAP1 PUSH2 0x4F7 JUMP JUMPDEST PUSH1 0x40 MLOAD DUP1 SWAP2 SUB SWAP1 RETURN JUMPDEST PUSH2 0x7E PUSH2 0xC5 JUMP JUMPDEST STOP JUMPDEST PUSH2 0x88 PUSH2 0x2E6 JUMP JUMPDEST PUSH1 0x40 MLOAD PUSH2 0x9C SWAP9 SWAP8 SWAP7 SWAP6 SWAP5 SWAP4 SWAP3 SWAP2 SWAP1 PUSH2 0x5CA JUMP JUMPDEST PUSH1 0x40 MLOAD DUP1 SWAP2 SUB SWAP1 RETURN JUMPDEST PUSH1 0x8 PUSH1 0x20 MSTORE DUP1 PUSH1 0x0 MSTORE PUSH1 0x40 PUSH1 0x0 KECCAK256 PUSH1 0x0 SWAP2 POP SLOAD SWAP1 PUSH2 0x100 EXP SWAP1 DIV PUSH1 0xFF AND DUP2 JUMP JUMPDEST PUSH1 0x0 PUSH1 0x3 ADD SLOAD TIMESTAMP LT ISZERO PUSH2 0x10D JUMPI PUSH1 0x40 MLOAD PUSH32 0x8C379A000000000000000000000000000000000000000000000000000000000 DUP2 MSTORE PUSH1 0x4 ADD PUSH2 0x104 SWAP1 PUSH2 0x6A2 JUMP JUMPDEST PUSH1 0x40 MLOAD DUP1 SWAP2 SUB SWAP1 REVERT JUMPDEST PUSH1 0x0 PUSH1 0x4 ADD SLOAD TIMESTAMP GT ISZERO PUSH2 0x155 JUMPI PUSH1 0x40 MLOAD PUSH32 0x8C379A000000000000000000000000000000000000000000000000000000000 DUP2 MSTORE PUSH1 0x4 ADD PUSH2 0x14C SWAP1 PUSH2 0x70E JUMP JUMPDEST PUSH1 0x40 MLOAD DUP1 SWAP2 SUB SWAP1 REVERT JUMPDEST PUSH1 0x0 PUSH1 0x2 ADD SLOAD PUSH1 0x0 PUSH1 0x7 ADD SLOAD LT PUSH2 0x1A1 JUMPI PUSH1 0x40 MLOAD PUSH32 0x8C379A000000000000000000000000000000000000000000000000000000000 DUP2 MSTORE PUSH1 0x4 ADD PUSH2 0x198 SWAP1 PUSH2 0x77A JUMP JUMPDEST PUSH1 0x40 MLOAD DUP1 SWAP2 SUB SWAP1 REVERT JUMPDEST PUSH1 0x8 PUSH1 0x0 CALLER PUSH20 0xFFFFFFFFFFFFFFFFFFFFFFFFFFFFFFFFFFFFFFFF AND PUSH20 0xFFFFFFFFFFFFFFFFFFFFFFFFFFFFFFFFFFFFFFFF AND DUP2 MSTORE PUSH1 0x20 ADD SWAP1 DUP2 MSTORE PUSH1 0x20 ADD PUSH1 0x0 KECCAK256 PUSH1 0x0 SWAP1 SLOAD SWAP1 PUSH2 0x100 EXP SWAP1 DIV PUSH1 0xFF AND ISZERO PUSH2 0x22E JUMPI PUSH1 0x40 MLOAD PUSH32 0x8C379A000000000000000000000000000000000000000000000000000000000 DUP2 MSTORE PUSH1 0x4 ADD PUSH2 0x225 SWAP1 PUSH2 0x7E6 JUMP JUMPDEST PUSH1 0x40 MLOAD DUP1 SWAP2 SUB SWAP1 REVERT JUMPDEST PUSH1 0x1 PUSH1 0x8 PUSH1 0x0 CALLER PUSH20 0xFFFFFFFFFFFFFFFFFFFFFFFFFFFFFFFFFFFFFFFF AND PUSH20 0xFFFFFFFFFFFFFFFFFFFFFFFFFFFFFFFFFFFFFFFF AND DUP2 MSTORE PUSH1 0x20 ADD SWAP1 DUP2 MSTORE PUSH1 0x20 ADD PUSH1 0x0 KECCAK256 PUSH1 0x0 PUSH2 0x100 EXP DUP2 SLOAD DUP2 PUSH1 0xFF MUL NOT AND SWAP1 DUP4 ISZERO ISZERO MUL OR SWAP1 SSTORE POP PUSH1 0x0 PUSH1 0x7 ADD PUSH1 0x0 DUP2 SLOAD DUP1 SWAP3 SWAP2 SWAP1 PUSH2 0x29C SWAP1 PUSH2 0x835 JUMP JUMPDEST SWAP2 SWAP1 POP SSTORE POP CALLER PUSH20 0xFFFFFFFFFFFFFFFFFFFFFFFFFFFFFFFFFFFFFFFF AND PUSH32 0xD9C2457ACC5CCD00EC03BC7BD9D6017AC7FD390FA4D58A529EA2B07CCF158DC8 PUSH1 0x40 MLOAD PUSH1 0x40 MLOAD DUP1 SWAP2 SUB SWAP1 LOG2 JUMP JUMPDEST PUSH1 0x0 DUP1 PUSH1 0x0 ADD DUP1 SLOAD PUSH2 0x2F7 SWAP1 PUSH2 0x8AC JUMP JUMPDEST DUP1 PUSH1 0x1F ADD PUSH1 0x20 DUP1 SWAP2 DIV MUL PUSH1 0x20 ADD PUSH1 0x40 MLOAD SWAP1 DUP2 ADD PUSH1 0x40 MSTORE DUP1 SWAP3 SWAP2 SWAP1 DUP2 DUP2 MSTORE PUSH1 0x20 ADD DUP3 DUP1 SLOAD PUSH2 0x323 SWAP1 PUSH2 0x8AC JUMP JUMPDEST DUP1 ISZERO PUSH2 0x370 JUMPI DUP1 PUSH1 0x1F LT PUSH2 0x345 JUMPI PUSH2 0x100 DUP1 DUP4 SLOAD DIV MUL DUP4 MSTORE SWAP2 PUSH1 0x20 ADD SWAP2 PUSH2 0x370 JUMP JUMPDEST DUP3 ADD SWAP2 SWAP1 PUSH1 0x0 MSTORE PUSH1 0x20 PUSH1 0x0 KECCAK256 SWAP1 JUMPDEST DUP2 SLOAD DUP2 MSTORE SWAP1 PUSH1 0x1 ADD SWAP1 PUSH1 0x20 ADD DUP1 DUP4 GT PUSH2 0x353 JUMPI DUP3 SWAP1 SUB PUSH1 0x1F AND DUP3 ADD SWAP2 JUMPDEST POP POP POP POP POP SWAP1 DUP1 PUSH1 0x1 ADD DUP1 SLOAD PUSH2 0x385 SWAP1 PUSH2 0x8AC JUMP JUMPDEST DUP1 PUSH1 0x1F ADD PUSH1 0x20 DUP1 SWAP2 DIV MUL PUSH1 0x20 ADD PUSH1 0x40 MLOAD SWAP1 DUP2 ADD PUSH1 0x40 MSTORE DUP1 SWAP3 SWAP2 SWAP1 DUP2 DUP2 MSTORE PUSH1 0x20 ADD DUP3 DUP1 SLOAD PUSH2 0x3B1 SWAP1 PUSH2 0x8AC JUMP JUMPDEST DUP1 ISZERO PUSH2 0x3FE JUMPI DUP1 PUSH1 0x1F LT PUSH2 0x3D3 JUMPI PUSH2 0x100 DUP1 DUP4 SLOAD DIV MUL DUP4 MSTORE SWAP2 PUSH1 0x20 ADD SWAP2 PUSH2 0x3FE JUMP JUMPDEST DUP3 ADD SWAP2 SWAP1 PUSH1 0x0 MSTORE PUSH1 0x20 PUSH1 0x0 KECCAK256 SWAP1 JUMPDEST DUP2 SLOAD DUP2 MSTORE SWAP1 PUSH1 0x1 ADD SWAP1 PUSH1 0x20 ADD DUP1 DUP4 GT PUSH2 0x3E1 JUMPI DUP3 SWAP1 SUB PUSH1 0x1F AND DUP3 ADD SWAP2 JUMPDEST POP POP POP POP POP SWAP1 DUP1 PUSH1 0x2 ADD SLOAD SWAP1 DUP1 PUSH1 0x3 ADD SLOAD SWAP1 DUP1 PUSH1 0x4 ADD SLOAD SWAP1 DUP1 PUSH1 0x5 ADD SLOAD SWAP1 DUP1 PUSH1 0x6 ADD PUSH1 0x0 SWAP1 SLOAD SWAP1 PUSH2 0x100 EXP SWAP1 DIV PUSH20 0xFFFFFFFFFFFFFFFFFFFFFFFFFFFFFFFFFFFFFFFF AND SWAP1 DUP1 PUSH1 0x7 ADD SLOAD SWAP1 POP DUP9 JUMP JUMPDEST PUSH1 0x0 DUP1 REVERT JUMPDEST PUSH1 0x0 PUSH20 0xFFFFFFFFFFFFFFFFFFFFFFFFFFFFFFFFFFFFFFFF DUP3 AND SWAP1 POP SWAP2 SWAP1 POP JUMP JUMPDEST PUSH1 0x0 PUSH2 0x47C DUP3 PUSH2 0x451 JUMP JUMPDEST SWAP1 POP SWAP2 SWAP1 POP JUMP JUMPDEST PUSH2 0x48C DUP2 PUSH2 0x471 JUMP JUMPDEST DUP2 EQ PUSH2 0x497 JUMPI PUSH1 0x0 DUP1 REVERT JUMPDEST POP JUMP JUMPDEST PUSH1 0x0 DUP2 CALLDATALOAD SWAP1 POP PUSH2 0x4A9 DUP2 PUSH2 0x483 JUMP JUMPDEST SWAP3 SWAP2 POP POP JUMP JUMPDEST PUSH1 0x0 PUSH1 0x20 DUP3 DUP5 SUB SLT ISZERO PUSH2 0x4C5 JUMPI PUSH2 0x4C4 PUSH2 0x44C JUMP JUMPDEST JUMPDEST PUSH1 0x0 PUSH2 0x4D3 DUP5 DUP3 DUP6 ADD PUSH2 0x49A JUMP JUMPDEST SWAP2 POP POP SWAP3 SWAP2 POP POP JUMP JUMPDEST PUSH1 0x0 DUP2 ISZERO ISZERO SWAP1 POP SWAP2 SWAP1 POP JUMP JUMPDEST PUSH2 0x4F1 DUP2 PUSH2 0x4DC JUMP JUMPDEST DUP3 MSTORE POP POP JUMP JUMPDEST PUSH1 0x0 PUSH1 0x20 DUP3 ADD SWAP1 POP PUSH2 0x50C PUSH1 0x0 DUP4 ADD DUP5 PUSH2 0x4E8 JUMP JUMPDEST SWAP3 SWAP2 POP POP JUMP JUMPDEST PUSH1 0x0 DUP2 MLOAD SWAP1 POP SWAP2 SWAP1 POP JUMP JUMPDEST PUSH1 0x0 DUP3 DUP3 MSTORE PUSH1 0x20 DUP3 ADD SWAP1 POP SWAP3 SWAP2 POP POP JUMP JUMPDEST PUSH1 0x0 JUMPDEST DUP4 DUP2 LT ISZERO PUSH2 0x54C JUMPI DUP1 DUP3 ADD MLOAD DUP2 DUP5 ADD MSTORE PUSH1 0x20 DUP2 ADD SWAP1 POP PUSH2 0x531 JUMP JUMPDEST PUSH1 0x0 DUP5 DUP5 ADD MSTORE POP POP POP POP JUMP JUMPDEST PUSH1 0x0 PUSH1 0x1F NOT PUSH1 0x1F DUP4 ADD AND SWAP1 POP SWAP2 SWAP1 POP JUMP JUMPDEST PUSH1 0x0 PUSH2 0x574 DUP3 PUSH2 0x512 JUMP JUMPDEST PUSH2 0x57E DUP2 DUP6 PUSH2 0x51D JUMP JUMPDEST SWAP4 POP PUSH2 0x58E DUP2 DUP6 PUSH1 0x20 DUP7 ADD PUSH2 0x52E JUMP JUMPDEST PUSH2 0x597 DUP2 PUSH2 0x558 JUMP JUMPDEST DUP5 ADD SWAP2 POP POP SWAP3 SWAP2 POP POP JUMP JUMPDEST PUSH1 0x0 DUP2 SWAP1 POP SWAP2 SWAP1 POP JUMP JUMPDEST PUSH2 0x5B5 DUP2 PUSH2 0x5A2 JUMP JUMPDEST DUP3 MSTORE POP POP JUMP JUMPDEST PUSH2 0x5C4 DUP2 PUSH2 0x471 JUMP JUMPDEST DUP3 MSTORE POP POP JUMP JUMPDEST PUSH1 0x0 PUSH2 0x100 DUP3 ADD SWAP1 POP DUP2 DUP2 SUB PUSH1 0x0 DUP4 ADD MSTORE PUSH2 0x5E5 DUP2 DUP12 PUSH2 0x569 JUMP JUMPDEST SWAP1 POP DUP2 DUP2 SUB PUSH1 0x20 DUP4 ADD MSTORE PUSH2 0x5F9 DUP2 DUP11 PUSH2 0x569 JUMP JUMPDEST SWAP1 POP PUSH2 0x608 PUSH1 0x40 DUP4 ADD DUP10 PUSH2 0x5AC JUMP JUMPDEST PUSH2 0x615 PUSH1 0x60 DUP4 ADD DUP9 PUSH2 0x5AC JUMP JUMPDEST PUSH2 0x622 PUSH1 0x80 DUP4 ADD DUP8 PUSH2 0x5AC JUMP JUMPDEST PUSH2 0x62F PUSH1 0xA0 DUP4 ADD DUP7 PUSH2 0x5AC JUMP JUMPDEST PUSH2 0x63C PUSH1 0xC0 DUP4 ADD DUP6 PUSH2 0x5BB JUMP JUMPDEST PUSH2 0x649 PUSH1 0xE0 DUP4 ADD DUP5 PUSH2 0x5AC JUMP JUMPDEST SWAP10 SWAP9 POP POP POP POP POP POP POP POP POP JUMP JUMPDEST PUSH32 0x5369676E757020686173206E6F74207374617274656420796574000000000000 PUSH1 0x0 DUP3 ADD MSTORE POP JUMP JUMPDEST PUSH1 0x0 PUSH2 0x68C PUSH1 0x1A DUP4 PUSH2 0x51D JUMP JUMPDEST SWAP2 POP PUSH2 0x697 DUP3 PUSH2 0x656 JUMP JUMPDEST PUSH1 0x20 DUP3 ADD SWAP1 POP SWAP2 SWAP1 POP JUMP JUMPDEST PUSH1 0x0 PUSH1 0x20 DUP3 ADD SWAP1 POP DUP2 DUP2 SUB PUSH1 0x0 DUP4 ADD MSTORE PUSH2 0x6BB DUP2 PUSH2 0x67F JUMP JUMPDEST SWAP1 POP SWAP2 SWAP1 POP JUMP JUMPDEST PUSH32 0x5369676E75702068617320656E64656400000000000000000000000000000000 PUSH1 0x0 DUP3 ADD MSTORE POP JUMP JUMPDEST PUSH1 0x0 PUSH2 0x6F8 PUSH1 0x10 DUP4 PUSH2 0x51D JUMP JUMPDEST SWAP2 POP PUSH2 0x703 DUP3 PUSH2 0x6C2 JUMP JUMPDEST PUSH1 0x20 DUP3 ADD SWAP1 POP SWAP2 SWAP1 POP JUMP JUMPDEST PUSH1 0x0 PUSH1 0x20 DUP3 ADD SWAP1 POP DUP2 DUP2 SUB PUSH1 0x0 DUP4 ADD MSTORE PUSH2 0x727 DUP2 PUSH2 0x6EB JUMP JUMPDEST SWAP1 POP SWAP2 SWAP1 POP JUMP JUMPDEST PUSH32 0x4576656E742069732066756C6C00000000000000000000000000000000000000 PUSH1 0x0 DUP3 ADD MSTORE POP JUMP JUMPDEST PUSH1 0x0 PUSH2 0x764 PUSH1 0xD DUP4 PUSH2 0x51D JUMP JUMPDEST SWAP2 POP PUSH2 0x76F DUP3 PUSH2 0x72E JUMP JUMPDEST PUSH1 0x20 DUP3 ADD SWAP1 POP SWAP2 SWAP1 POP JUMP JUMPDEST PUSH1 0x0 PUSH1 0x20 DUP3 ADD SWAP1 POP DUP2 DUP2 SUB PUSH1 0x0 DUP4 ADD MSTORE PUSH2 0x793 DUP2 PUSH2 0x757 JUMP JUMPDEST SWAP1 POP SWAP2 SWAP1 POP JUMP JUMPDEST PUSH32 0x416C7265616479207369676E6564207570000000000000000000000000000000 PUSH1 0x0 DUP3 ADD MSTORE POP JUMP JUMPDEST PUSH1 0x0 PUSH2 0x7D0 PUSH1 0x11 DUP4 PUSH2 0x51D JUMP JUMPDEST SWAP2 POP PUSH2 0x7DB DUP3 PUSH2 0x79A JUMP JUMPDEST PUSH1 0x20 DUP3 ADD SWAP1 POP SWAP2 SWAP1 POP JUMP JUMPDEST PUSH1 0x0 PUSH1 0x20 DUP3 ADD SWAP1 POP DUP2 DUP2 SUB PUSH1 0x0 DUP4 ADD MSTORE PUSH2 0x7FF DUP2 PUSH2 0x7C3 JUMP JUMPDEST SWAP1 POP SWAP2 SWAP1 POP JUMP JUMPDEST PUSH32 0x4E487B7100000000000000000000000000000000000000000000000000000000 PUSH1 0x0 MSTORE PUSH1 0x11 PUSH1 0x4 MSTORE PUSH1 0x24 PUSH1 0x0 REVERT JUMPDEST PUSH1 0x0 PUSH2 0x840 DUP3 PUSH2 0x5A2 JUMP JUMPDEST SWAP2 POP PUSH32 0xFFFFFFFFFFFFFFFFFFFFFFFFFFFFFFFFFFFFFFFFFFFFFFFFFFFFFFFFFFFFFFFF DUP3 SUB PUSH2 0x872 JUMPI PUSH2 0x871 PUSH2 0x806 JUMP JUMPDEST JUMPDEST PUSH1 0x1 DUP3 ADD SWAP1 POP SWAP2 SWAP1 POP JUMP JUMPDEST PUSH32 0x4E487B7100000000000000000000000000000000000000000000000000000000 PUSH1 0x0 MSTORE PUSH1 0x22 PUSH1 0x4 MSTORE PUSH1 0x24 PUSH1 0x0 REVERT JUMPDEST PUSH1 0x0 PUSH1 0x2 DUP3 DIV SWAP1 POP PUSH1 0x1 DUP3 AND DUP1 PUSH2 0x8C4 JUMPI PUSH1 0x7F DUP3 AND SWAP2 POP JUMPDEST PUSH1 0x20 DUP3 LT DUP2 SUB PUSH2 0x8D7 JUMPI PUSH2 0x8D6 PUSH2 0x87D JUMP JUMPDEST JUMPDEST POP SWAP2 SWAP1 POP JUMP INVALID LOG2 PUSH5 0x6970667358 0x22 SLT KECCAK256 ADD 0xCB BLOBHASH CALLDATALOAD 0xE9 PUSH29 0x75AED7E3236CB9891AF9A55B396A28FEC57BFD67E38E27B61DCE64736F PUSH13 0x634300081C0033000000000000 "
        },
        "methodIdentifiers": {
          "attendees(address)": "396dc854",
          "eventDetails()": "f1386cd6",
          "signUp()": "bf96ae63"
        }
      }
    }
  }
}