{
  "_format": "hh-sol-artifact-1",
  "contractName": "EventSignup",
  "sourceName": "contracts/EventSignup.sol",
  "abi": [
    {
      "inputs": [
        {
          "internalType": "string",
          "name": "_name",
          "type": "string"
        },
        {
          "internalType": "string",
          "name": "_description",
          "type": "string"
        },
        {
          "internalType": "uint256",
          "name": "_maxCapacity",
          "type": "uint256"
        },
        {
          "internalType": "uint256",
          "name": "_signupStartTime",
          "type": "uint256"
        },
        {
          "internalType": "uint256",
          "name": "_signupEndTime",
          "type": "uint256"
        },
        {
          "internalType": "uint256",
          "name": "_redemptionTime",
          "type": "uint256"
        }
      ],
      "stateMutability": "nonpayable",
      "type": "constructor"
    },
    {
      "anonymous": false,
      "inputs": [
        {
          "indexed": false,
          "internalType": "string",
          "name": "name",
          "type": "string"
        },
        {
          "indexed": false,
          "internalType": "uint256",
          "name": "maxCapacity",
          "type": "uint256"
        },
        {
          "indexed": false,
          "internalType": "uint256",
          "name": "signupStartTime",
          "type": "uint256"
        },
        {
          "indexed": false,
          "internalType": "uint256",
          "name": "signupEndTime",
          "type": "uint256"
        },
        {
          "indexed": false,
          "internalType": "uint256",
          "name": "redemptionTime",
          "type": "uint256"
        }
      ],
      "name": "EventCreated",
      "type": "event"
    },
    {
      "anonymous": false,
      "inputs": [
        {
          "indexed": true,
          "internalType": "address",
          "name": "attendee",
          "type": "address"
        }
      ],
      "name": "SignedUp",
      "type": "event"
    },
    {
      "inputs": [
        {
          "internalType": "address",
          "name": "",
          "type": "address"
        }
      ],
      "name": "attendees",
      "outputs": [
        {
          "internalType": "bool",
          "name": "",
          "type": "bool"
        }
      ],
      "stateMutability": "view",
      "type": "function"
    },
    {
      "inputs": [],
      "name": "eventDetails",
      "outputs": [
        {
          "internalType": "string",
          "name": "name",
          "type": "string"
        },
        {
          "internalType": "string",
          "name": "description",
          "type": "string"
        },
        {
          "internalType": "uint256",
          "name": "maxCapacity",
          "type": "uint256"
        },
        {
          "internalType": "uint256",
          "name": "signupStartTime",
          "type": "uint256"
        },
        {
          "internalType": "uint256",
          "name": "signupEndTime",
          "type": "uint256"
        },
        {
          "internalType": "uint256",
          "name": "redemptionTime",
          "type": "uint256"
        },
        {
          "internalType": "address",
          "name": "creator",
          "type": "address"
        },
        {
          "internalType": "uint256",
          "name": "attendeeCount",
          "type": "uint256"
        }
      ],
      "stateMutability": "view",
      "type": "function"
    },
    {
      "inputs": [],
      "name": "signUp",
      "outputs": [],
      "stateMutability": "nonpayable",
      "type": "function"
    }
  ],
  "bytecode": "0x608060405234801561001057600080fd5b50604051611301380380611301833981810160405281019061003291906103ee565b828282818310610077576040517f08c379a000000000000000000000000000000000000000000000000000000000815260040161006e90610536565b60405180910390fd5b8082106100b9576040517f08c379a00000000000000000000000000000000000000000000000000000000081526004016100b0906105c8565b60405180910390fd5b600087116100fc576040517f08c379a00000000000000000000000000000000000000000000000000000000081526004016100f390610634565b60405180910390fd5b6040518061010001604052808a81526020018981526020018881526020018781526020018681526020018581526020013373ffffffffffffffffffffffffffffffffffffffff1681526020016000815250600080820151816000019081610163919061086b565b506020820151816001019081610179919061086b565b5060408201518160020155606082015181600301556080820151816004015560a0820151816005015560c08201518160060160006101000a81548173ffffffffffffffffffffffffffffffffffffffff021916908373ffffffffffffffffffffffffffffffffffffffff16021790555060e082015181600701559050507f61ebadddd88498dbac748b69db4c1ef1f42ddd6f29ca1a24156ac2a375f54026898888888860405161022d959493929190610985565b60405180910390a15050505050505050506109df565b6000604051905090565b600080fd5b600080fd5b600080fd5b600080fd5b6000601f19601f8301169050919050565b7f4e487b7100000000000000000000000000000000000000000000000000000000600052604160045260246000fd5b6102aa82610261565b810181811067ffffffffffffffff821117156102c9576102c8610272565b5b80604052505050565b60006102dc610243565b90506102e882826102a1565b919050565b600067ffffffffffffffff82111561030857610307610272565b5b61031182610261565b9050602081019050919050565b60005b8381101561033c578082015181840152602081019050610321565b60008484015250505050565b600061035b610356846102ed565b6102d2565b9050828152602081018484840111156103775761037661025c565b5b61038284828561031e565b509392505050565b600082601f83011261039f5761039e610257565b5b81516103af848260208601610348565b91505092915050565b6000819050919050565b6103cb816103b8565b81146103d657600080fd5b50565b6000815190506103e8816103c2565b92915050565b60008060008060008060c0878903121561040b5761040a61024d565b5b600087015167ffffffffffffffff81111561042957610428610252565b5b61043589828a0161038a565b965050602087015167ffffffffffffffff81111561045657610455610252565b5b61046289828a0161038a565b955050604061047389828a016103d9565b945050606061048489828a016103d9565b935050608061049589828a016103d9565b92505060a06104a689828a016103d9565b9150509295509295509295565b600082825260208201905092915050565b7f5369676e75702073746172742074696d65206d757374206265206265666f726560008201527f207369676e757020656e642074696d6500000000000000000000000000000000602082015250565b60006105206030836104b3565b915061052b826104c4565b604082019050919050565b6000602082019050818103600083015261054f81610513565b9050919050565b7f5369676e757020656e642074696d65206d757374206265206265666f7265207260008201527f6564656d7074696f6e2074696d65000000000000000000000000000000000000602082015250565b60006105b2602e836104b3565b91506105bd82610556565b604082019050919050565b600060208201905081810360008301526105e1816105a5565b9050919050565b7f4361706163697479206d7573742062652067726561746572207468616e203000600082015250565b600061061e601f836104b3565b9150610629826105e8565b602082019050919050565b6000602082019050818103600083015261064d81610611565b9050919050565b600081519050919050565b7f4e487b7100000000000000000000000000000000000000000000000000000000600052602260045260246000fd5b600060028204905060018216806106a657607f821691505b6020821081036106b9576106b861065f565b5b50919050565b60008190508160005260206000209050919050565b60006020601f8301049050919050565b600082821b905092915050565b6000600883026107217fffffffffffffffffffffffffffffffffffffffffffffffffffffffffffffffff826106e4565b61072b86836106e4565b95508019841693508086168417925050509392505050565b6000819050919050565b600061076861076361075e846103b8565b610743565b6103b8565b9050919050565b6000819050919050565b6107828361074d565b61079661078e8261076f565b8484546106f1565b825550505050565b600090565b6107ab61079e565b6107b6818484610779565b505050565b5b818110156107da576107cf6000826107a3565b6001810190506107bc565b5050565b601f82111561081f576107f0816106bf565b6107f9846106d4565b81016020851015610808578190505b61081c610814856106d4565b8301826107bb565b50505b505050565b600082821c905092915050565b600061084260001984600802610824565b1980831691505092915050565b600061085b8383610831565b9150826002028217905092915050565b61087482610654565b67ffffffffffffffff81111561088d5761088c610272565b5b610897825461068e565b6108a28282856107de565b600060209050601f8311600181146108d557600084156108c3578287015190505b6108cd858261084f565b865550610935565b601f1984166108e3866106bf565b60005b8281101561090b578489015182556001820191506020850194506020810190506108e6565b868310156109285784890151610924601f891682610831565b8355505b6001600288020188555050505b505050505050565b600061094882610654565b61095281856104b3565b935061096281856020860161031e565b61096b81610261565b840191505092915050565b61097f816103b8565b82525050565b600060a082019050818103600083015261099f818861093d565b90506109ae6020830187610976565b6109bb6040830186610976565b6109c86060830185610976565b6109d56080830184610976565b9695505050505050565b610913806109ee6000396000f3fe608060405234801561001057600080fd5b50600436106100415760003560e01c8063396dc85414610046578063bf96ae6314610076578063f1386cd614610080575b600080fd5b610060600480360381019061005b91906104af565b6100a5565b60405161006d91906104f7565b60405180910390f35b61007e6100c5565b005b6100886102e6565b60405161009c9897969594939291906105ca565b60405180910390f35b60086020528060005260406000206000915054906101000a900460ff1681565b60006003015442101561010d576040517f08c379a0000000000000000000000000000000000000000000000000000000008152600401610104906106a2565b60405180910390fd5b600060040154421115610155576040517f08c379a000000000000000000000000000000000000000000000000000000000815260040161014c9061070e565b60405180910390fd5b600060020154600060070154106101a1576040517f08c379a00000000000000000000000000000000000000000000000000000000081526004016101989061077a565b60405180910390fd5b600860003373ffffffffffffffffffffffffffffffffffffffff1673ffffffffffffffffffffffffffffffffffffffff16815260200190815260200160002060009054906101000a900460ff161561022e576040517f08c379a0000000000000000000000000000000000000000000000000000000008152600401610225906107e6565b60405180910390fd5b6001600860003373ffffffffffffffffffffffffffffffffffffffff1673ffffffffffffffffffffffffffffffffffffffff16815260200190815260200160002060006101000a81548160ff0219169083151502179055506000600701600081548092919061029c90610835565b91905055503373ffffffffffffffffffffffffffffffffffffffff167fd9c2457acc5ccd00ec03bc7bd9d6017ac7fd390fa4d58a529ea2b07ccf158dc860405160405180910390a2565b60008060000180546102f7906108ac565b80601f0160208091040260200160405190810160405280929190818152602001828054610323906108ac565b80156103705780601f1061034557610100808354040283529160200191610370565b820191906000526020600020905b81548152906001019060200180831161035357829003601f168201915b505050505090806001018054610385906108ac565b80601f01602080910402602001604051908101604052809291908181526020018280546103b1906108ac565b80156103fe5780601f106103d3576101008083540402835291602001916103fe565b820191906000526020600020905b8154815290600101906020018083116103e157829003601f168201915b5050505050908060020154908060030154908060040154908060050154908060060160009054906101000a900473ffffffffffffffffffffffffffffffffffffffff16908060070154905088565b600080fd5b600073ffffffffffffffffffffffffffffffffffffffff82169050919050565b600061047c82610451565b9050919050565b61048c81610471565b811461049757600080fd5b50565b6000813590506104a981610483565b92915050565b6000602082840312156104c5576104c461044c565b5b60006104d38482850161049a565b91505092915050565b60008115159050919050565b6104f1816104dc565b82525050565b600060208201905061050c60008301846104e8565b92915050565b600081519050919050565b600082825260208201905092915050565b60005b8381101561054c578082015181840152602081019050610531565b60008484015250505050565b6000601f19601f8301169050919050565b600061057482610512565b61057e818561051d565b935061058e81856020860161052e565b61059781610558565b840191505092915050565b6000819050919050565b6105b5816105a2565b82525050565b6105c481610471565b82525050565b60006101008201905081810360008301526105e5818b610569565b905081810360208301526105f9818a610569565b905061060860408301896105ac565b61061560608301886105ac565b61062260808301876105ac565b61062f60a08301866105ac565b61063c60c08301856105bb565b61064960e08301846105ac565b9998505050505050505050565b7f5369676e757020686173206e6f74207374617274656420796574000000000000600082015250565b600061068c601a8361051d565b915061069782610656565b602082019050919050565b600060208201905081810360008301526106bb8161067f565b9050919050565b7f5369676e75702068617320656e64656400000000000000000000000000000000600082015250565b60006106f860108361051d565b9150610703826106c2565b602082019050919050565b60006020820190508181036000830152610727816106eb565b9050919050565b7f4576656e742069732066756c6c00000000000000000000000000000000000000600082015250565b6000610764600d8361051d565b915061076f8261072e565b602082019050919050565b6000602082019050818103600083015261079381610757565b9050919050565b7f416c7265616479207369676e6564207570000000000000000000000000000000600082015250565b60006107d060118361051d565b91506107db8261079a565b602082019050919050565b600060208201905081810360008301526107ff816107c3565b9050919050565b7f4e487b7100000000000000000000000000000000000000000000000000000000600052601160045260246000fd5b6000610840826105a2565b91507fffffffffffffffffffffffffffffffffffffffffffffffffffffffffffffffff820361087257610871610806565b5b600182019050919050565b7f4e487b7100000000000000000000000000000000000000000000000000000000600052602260045260246000fd5b600060028204905060018216806108c457607f821691505b6020821081036108d7576108d661087d565b5b5091905056fea264697066735822122001cb4935e97c75aed7e3236cb9891af9a55b396a28fec57bfd67e38e27b61dce64736f6c634300081c0033",
  "linkReferences": {},
  "deployedLinkReferences": {}
}