{
  "_format": "hh-sol-artifact-1",
  "contractName": "Token",
  "sourceName": "contracts/Token.sol",
  "abi": [
    {
      "inputs": [
        {
          "internalType": "string",
          "name": "name",
          "type": "string"
        },
        {
          "internalType": "string",
          "name": "symbol",
          "type": "string"
        },
        {
          "internalType": "uint256",
          "name": "initialSupply",
          "type": "uint256"
        }
      ],
      "stateMutability": "nonpayable",
      "type": "constructor"
    },
    {
      "anonymous": false,
      "inputs": [
        {
          "indexed": true,
          "internalType": "address",
          "name": "owner",
          "type": "address"
        },
        {
          "indexed": true,
          "internalType": "address",
          "name": "spender",
          "type": "address"
        },
        {
          "indexed": false,
          "internalType": "uint256",
          "name": "value",
          "type": "uint256"
        }
      ],
      "name": "Approval",
      "type": "event"
    },
    {
      "anonymous": false,
      "inputs": [
        {
          "indexed": false,
          "internalType": "address",
          "name": "account",
          "type": "address"
        }
      ],
      "name": "Paused",
      "type": "event"
    },
    {
      "anonymous": false,
      "inputs": [
        {
          "indexed": true,
          "internalType": "bytes32",
          "name": "role",
          "type": "bytes32"
        },
        {
          "indexed": true,
          "internalType": "bytes32",
          "name": "previousAdminRole",
          "type": "bytes32"
        },
        {
          "indexed": true,
          "internalType": "bytes32",
          "name": "newAdminRole",
          "type": "bytes32"
        }
      ],
      "name": "RoleAdminChanged",
      "type": "event"
    },
    {
      "anonymous": false,
      "inputs": [
        {
          "indexed": true,
          "internalType": "bytes32",
          "name": "role",
          "type": "bytes32"
        },
        {
          "indexed": true,
          "internalType": "address",
          "name": "account",
          "type": "address"
        },
        {
          "indexed": true,
          "internalType": "address",
          "name": "sender",
          "type": "address"
        }
      ],
      "name": "RoleGranted",
      "type": "event"
    },
    {
      "anonymous": false,
      "inputs": [
        {
          "indexed": true,
          "internalType": "bytes32",
          "name": "role",
          "type": "bytes32"
        },
        {
          "indexed": true,
          "internalType": "address",
          "name": "account",
          "type": "address"
        },
        {
          "indexed": true,
          "internalType": "address",
          "name": "sender",
          "type": "address"
        }
      ],
      "name": "RoleRevoked",
      "type": "event"
    },
    {
      "anonymous": false,
      "inputs": [
        {
          "indexed": true,
          "internalType": "address",
          "name": "from",
          "type": "address"
        },
        {
          "indexed": true,
          "internalType": "address",
          "name": "to",
          "type": "address"
        },
        {
          "indexed": false,
          "internalType": "uint256",
          "name": "value",
          "type": "uint256"
        }
      ],
      "name": "Transfer",
      "type": "event"
    },
    {
      "anonymous": false,
      "inputs": [
        {
          "indexed": false,
          "internalType": "address",
          "name": "account",
          "type": "address"
        }
      ],
      "name": "Unpaused",
      "type": "event"
    },
    {
      "inputs": [],
      "name": "BURNER_ROLE",
      "outputs": [
        {
          "internalType": "bytes32",
          "name": "",
          "type": "bytes32"
        }
      ],
      "stateMutability": "view",
      "type": "function"
    },
    {
      "inputs": [],
      "name": "DEFAULT_ADMIN_ROLE",
      "outputs": [
        {
          "internalType": "bytes32",
          "name": "",
          "type": "bytes32"
        }
      ],
      "stateMutability": "view",
      "type": "function"
    },
    {
      "inputs": [],
      "name": "MINTER_ROLE",
      "outputs": [
        {
          "internalType": "bytes32",
          "name": "",
          "type": "bytes32"
        }
      ],
      "stateMutability": "view",
      "type": "function"
    },
    {
      "inputs": [],
      "name": "PAUSER_ROLE",
      "outputs": [
        {
          "internalType": "bytes32",
          "name": "",
          "type": "bytes32"
        }
      ],
      "stateMutability": "view",
      "type": "function"
    },
    {
      "inputs": [],
      "name": "adminBalance",
      "outputs": [
        {
          "internalType": "uint256",
          "name": "",
          "type": "uint256"
        }
      ],
      "stateMutability": "view",
      "type": "function"
    },
    {
      "inputs": [
        {
          "internalType": "address",
          "name": "owner",
          "type": "address"
        },
        {
          "internalType": "address",
          "name": "spender",
          "type": "address"
        }
      ],
      "name": "allowance",
      "outputs": [
        {
          "internalType": "uint256",
          "name": "",
          "type": "uint256"
        }
      ],
      "stateMutability": "view",
      "type": "function"
    },
    {
      "inputs": [
        {
          "internalType": "address",
          "name": "spender",
          "type": "address"
        },
        {
          "internalType": "uint256",
          "name": "amount",
          "type": "uint256"
        }
      ],
      "name": "approve",
      "outputs": [
        {
          "internalType": "bool",
          "name": "",
          "type": "bool"
        }
      ],
      "stateMutability": "nonpayable",
      "type": "function"
    },
    {
      "inputs": [
        {
          "internalType": "address",
          "name": "account",
          "type": "address"
        }
      ],
      "name": "balanceOf",
      "outputs": [
        {
          "internalType": "uint256",
          "name": "",
          "type": "uint256"
        }
      ],
      "stateMutability": "view",
      "type": "function"
    },
    {
      "inputs": [
        {
          "internalType": "address",
          "name": "from",
          "type": "address"
        },
        {
          "internalType": "uint256",
          "name": "amount",
          "type": "uint256"
        }
      ],
      "name": "burn",
      "outputs": [],
      "stateMutability": "nonpayable",
      "type": "function"
    },
    {
      "inputs": [],
      "name": "circulatingSupply",
      "outputs": [
        {
          "internalType": "uint256",
          "name": "",
          "type": "uint256"
        }
      ],
      "stateMutability": "view",
      "type": "function"
    },
    {
      "inputs": [],
      "name": "decimals",
      "outputs": [
        {
          "internalType": "uint8",
          "name": "",
          "type": "uint8"
        }
      ],
      "stateMutability": "view",
      "type": "function"
    },
    {
      "inputs": [
        {
          "internalType": "address",
          "name": "spender",
          "type": "address"
        },
        {
          "internalType": "uint256",
          "name": "subtractedValue",
          "type": "uint256"
        }
      ],
      "name": "decreaseAllowance",
      "outputs": [
        {
          "internalType": "bool",
          "name": "",
          "type": "bool"
        }
      ],
      "stateMutability": "nonpayable",
      "type": "function"
    },
    {
      "inputs": [
        {
          "internalType": "address",
          "name": "account",
          "type": "address"
        }
      ],
      "name": "getReceivedVolume",
      "outputs": [
        {
          "internalType": "uint256",
          "name": "",
          "type": "uint256"
        }
      ],
      "stateMutability": "view",
      "type": "function"
    },
    {
      "inputs": [
        {
          "internalType": "bytes32",
          "name": "role",
          "type": "bytes32"
        }
      ],
      "name": "getRoleAdmin",
      "outputs": [
        {
          "internalType": "bytes32",
          "name": "",
          "type": "bytes32"
        }
      ],
      "stateMutability": "view",
      "type": "function"
    },
    {
      "inputs": [
        {
          "internalType": "bytes32",
          "name": "role",
          "type": "bytes32"
        },
        {
          "internalType": "address",
          "name": "account",
          "type": "address"
        }
      ],
      "name": "grantRole",
      "outputs": [],
      "stateMutability": "nonpayable",
      "type": "function"
    },
    {
      "inputs": [
        {
          "internalType": "bytes32",
          "name": "role",
          "type": "bytes32"
        },
        {
          "internalType": "address",
          "name": "account",
          "type": "address"
        }
      ],
      "name": "hasRole",
      "outputs": [
        {
          "internalType": "bool",
          "name": "",
          "type": "bool"
        }
      ],
      "stateMutability": "view",
      "type": "function"
    },
    {
      "inputs": [
        {
          "internalType": "address",
          "name": "spender",
          "type": "address"
        },
        {
          "internalType": "uint256",
          "name": "addedValue",
          "type": "uint256"
        }
      ],
      "name": "increaseAllowance",
      "outputs": [
        {
          "internalType": "bool",
          "name": "",
          "type": "bool"
        }
      ],
      "stateMutability": "nonpayable",
      "type": "function"
    },
    {
      "inputs": [
        {
          "internalType": "address",
          "name": "to",
          "type": "address"
        },
        {
          "internalType": "uint256",
          "name": "amount",
          "type": "uint256"
        }
      ],
      "name": "mint",
      "outputs": [],
      "stateMutability": "nonpayable",
      "type": "function"
    },
    {
      "inputs": [],
      "name": "name",
      "outputs": [
        {
          "internalType": "string",
          "name": "",
          "type": "string"
        }
      ],
      "stateMutability": "view",
      "type": "function"
    },
    {
      "inputs": [],
      "name": "pause",
      "outputs": [],
      "stateMutability": "nonpayable",
      "type": "function"
    },
    {
      "inputs": [],
      "name": "paused",
      "outputs": [
        {
          "internalType": "bool",
          "name": "",
          "type": "bool"
        }
      ],
      "stateMutability": "view",
      "type": "function"
    },
    {
      "inputs": [
        {
          "internalType": "bytes32",
          "name": "role",
          "type": "bytes32"
        },
        {
          "internalType": "address",
          "name": "account",
          "type": "address"
        }
      ],
      "name": "renounceRole",
      "outputs": [],
      "stateMutability": "nonpayable",
      "type": "function"
    },
    {
      "inputs": [
        {
          "internalType": "bytes32",
          "name": "role",
          "type": "bytes32"
        },
        {
          "internalType": "address",
          "name": "account",
          "type": "address"
        }
      ],
      "name": "revokeRole",
      "outputs": [],
      "stateMutability": "nonpayable",
      "type": "function"
    },
    {
      "inputs": [
        {
          "internalType": "bytes4",
          "name": "interfaceId",
          "type": "bytes4"
        }
      ],
      "name": "supportsInterface",
      "outputs": [
        {
          "internalType": "bool",
          "name": "",
          "type": "bool"
        }
      ],
      "stateMutability": "view",
      "type": "function"
    },
    {
      "inputs": [],
      "name": "symbol",
      "outputs": [
        {
          "internalType": "string",
          "name": "",
          "type": "string"
        }
      ],
      "stateMutability": "view",
      "type": "function"
    },
    {
      "inputs": [],
      "name": "totalSupply",
      "outputs": [
        {
          "internalType": "uint256",
          "name": "",
          "type": "uint256"
        }
      ],
      "stateMutability": "view",
      "type": "function"
    },
    {
      "inputs": [
        {
          "internalType": "address",
          "name": "to",
          "type": "address"
        },
        {
          "internalType": "uint256",
          "name": "amount",
          "type": "uint256"
        }
      ],
      "name": "transfer",
      "outputs": [
        {
          "internalType": "bool",
          "name": "",
          "type": "bool"
        }
      ],
      "stateMutability": "nonpayable",
      "type": "function"
    },
    {
      "inputs": [
        {
          "internalType": "address",
          "name": "from",
          "type": "address"
        },
        {
          "internalType": "address",
          "name": "to",
          "type": "address"
        },
        {
          "internalType": "uint256",
          "name": "amount",
          "type": "uint256"
        }
      ],
      "name": "transferFrom",
      "outputs": [
        {
          "internalType": "bool",
          "name": "",
          "type": "bool"
        }
      ],
      "stateMutability": "nonpayable",
      "type": "function"
    },
    {
      "inputs": [],
      "name": "treasury",
      "outputs": [
        {
          "internalType": "address",
          "name": "",
          "type": "address"
        }
      ],
      "stateMutability": "view",
      "type": "function"
    },
    {
      "inputs": [],
      "name": "unpause",
      "outputs": [],
      "stateMutability": "nonpayable",
      "type": "function"
    }
  ],
  "bytecode": "0x60a060405234801561001057600080fd5b506040516137b43803806137b48339818101604052810190610032919061075c565b8282816003908161004391906109fe565b50806004908161005391906109fe565b5050506000600660006101000a81548160ff0219169083151502179055503373ffffffffffffffffffffffffffffffffffffffff1660808173ffffffffffffffffffffffffffffffffffffffff16815250506100b76080518261016a60201b60201c565b6100cc6000801b6080516102cc60201b60201c565b6100fe7f9f2df0fed2c77648de5860a4cc508cd0818c85b8b8a1ab4ceeef8d981c8956a66080516102cc60201b60201c565b6101307f3c11d16cbaffd01df69ce1c404f6340ee057498f5f00246190ea54220576a8486080516102cc60201b60201c565b6101627f65d7a28e3265b37a6474929f336521b332c1681b933f6cb9f3376673440d862a6080516102cc60201b60201c565b505050610c46565b600073ffffffffffffffffffffffffffffffffffffffff168273ffffffffffffffffffffffffffffffffffffffff16036101d9576040517f08c379a00000000000000000000000000000000000000000000000000000000081526004016101d090610b2d565b60405180910390fd5b6101eb600083836102e060201b60201c565b80600260008282546101fd9190610b7c565b92505081905550806000808473ffffffffffffffffffffffffffffffffffffffff1673ffffffffffffffffffffffffffffffffffffffff168152602001908152602001600020600082825401925050819055508173ffffffffffffffffffffffffffffffffffffffff16600073ffffffffffffffffffffffffffffffffffffffff167fddf252ad1be2c89b69c2b068fc378daa952ba7f163c4a11628f55a4df523b3ef836040516102ae9190610bbf565b60405180910390a36102c86000838361030460201b60201c565b5050565b6102dc82826103e060201b60201c565b5050565b6102ee6104cd60201b60201c565b6102ff83838361051d60201b60201c565b505050565b600073ffffffffffffffffffffffffffffffffffffffff168373ffffffffffffffffffffffffffffffffffffffff161415801561036e5750600073ffffffffffffffffffffffffffffffffffffffff168273ffffffffffffffffffffffffffffffffffffffff1614155b156103ca5780600760008473ffffffffffffffffffffffffffffffffffffffff1673ffffffffffffffffffffffffffffffffffffffff16815260200190815260200160002060008282546103c29190610b7c565b925050819055505b6103db83838361052260201b60201c565b505050565b6103f0828261052760201b60201c565b6104c95760016005600084815260200190815260200160002060000160008373ffffffffffffffffffffffffffffffffffffffff1673ffffffffffffffffffffffffffffffffffffffff16815260200190815260200160002060006101000a81548160ff02191690831515021790555061046e61059260201b60201c565b73ffffffffffffffffffffffffffffffffffffffff168173ffffffffffffffffffffffffffffffffffffffff16837f2f8788117e7eff1d82e926ec794901d17c78024a50270940304540a733656f0d60405160405180910390a45b5050565b6104db61059a60201b60201c565b1561051b576040517f08c379a000000000000000000000000000000000000000000000000000000000815260040161051290610c26565b60405180910390fd5b565b505050565b505050565b60006005600084815260200190815260200160002060000160008373ffffffffffffffffffffffffffffffffffffffff1673ffffffffffffffffffffffffffffffffffffffff16815260200190815260200160002060009054906101000a900460ff16905092915050565b600033905090565b6000600660009054906101000a900460ff16905090565b6000604051905090565b600080fd5b600080fd5b600080fd5b600080fd5b6000601f19601f8301169050919050565b7f4e487b7100000000000000000000000000000000000000000000000000000000600052604160045260246000fd5b610618826105cf565b810181811067ffffffffffffffff82111715610637576106366105e0565b5b80604052505050565b600061064a6105b1565b9050610656828261060f565b919050565b600067ffffffffffffffff821115610676576106756105e0565b5b61067f826105cf565b9050602081019050919050565b60005b838110156106aa57808201518184015260208101905061068f565b60008484015250505050565b60006106c96106c48461065b565b610640565b9050828152602081018484840111156106e5576106e46105ca565b5b6106f084828561068c565b509392505050565b600082601f83011261070d5761070c6105c5565b5b815161071d8482602086016106b6565b91505092915050565b6000819050919050565b61073981610726565b811461074457600080fd5b50565b60008151905061075681610730565b92915050565b600080600060608486031215610775576107746105bb565b5b600084015167ffffffffffffffff811115610793576107926105c0565b5b61079f868287016106f8565b935050602084015167ffffffffffffffff8111156107c0576107bf6105c0565b5b6107cc868287016106f8565b92505060406107dd86828701610747565b9150509250925092565b600081519050919050565b7f4e487b7100000000000000000000000000000000000000000000000000000000600052602260045260246000fd5b6000600282049050600182168061083957607f821691505b60208210810361084c5761084b6107f2565b5b50919050565b60008190508160005260206000209050919050565b60006020601f8301049050919050565b600082821b905092915050565b6000600883026108b47fffffffffffffffffffffffffffffffffffffffffffffffffffffffffffffffff82610877565b6108be8683610877565b95508019841693508086168417925050509392505050565b6000819050919050565b60006108fb6108f66108f184610726565b6108d6565b610726565b9050919050565b6000819050919050565b610915836108e0565b61092961092182610902565b848454610884565b825550505050565b600090565b61093e610931565b61094981848461090c565b505050565b5b8181101561096d57610962600082610936565b60018101905061094f565b5050565b601f8211156109b25761098381610852565b61098c84610867565b8101602085101561099b578190505b6109af6109a785610867565b83018261094e565b50505b505050565b600082821c905092915050565b60006109d5600019846008026109b7565b1980831691505092915050565b60006109ee83836109c4565b9150826002028217905092915050565b610a07826107e7565b67ffffffffffffffff811115610a2057610a1f6105e0565b5b610a2a8254610821565b610a35828285610971565b600060209050601f831160018114610a685760008415610a56578287015190505b610a6085826109e2565b865550610ac8565b601f198416610a7686610852565b60005b82811015610a9e57848901518255600182019150602085019450602081019050610a79565b86831015610abb5784890151610ab7601f8916826109c4565b8355505b6001600288020188555050505b505050505050565b600082825260208201905092915050565b7f45524332303a206d696e7420746f20746865207a65726f206164647265737300600082015250565b6000610b17601f83610ad0565b9150610b2282610ae1565b602082019050919050565b60006020820190508181036000830152610b4681610b0a565b9050919050565b7f4e487b7100000000000000000000000000000000000000000000000000000000600052601160045260246000fd5b6000610b8782610726565b9150610b9283610726565b9250828201905080821115610baa57610ba9610b4d565b5b92915050565b610bb981610726565b82525050565b6000602082019050610bd46000830184610bb0565b92915050565b7f5061757361626c653a2070617573656400000000000000000000000000000000600082015250565b6000610c10601083610ad0565b9150610c1b82610bda565b602082019050919050565b60006020820190508181036000830152610c3f81610c03565b9050919050565b608051612b45610c6f6000396000818161090e01528181610a1f0152610af30152612b456000f3fe608060405234801561001057600080fd5b50600436106101da5760003560e01c806370a0823111610104578063a217fddf116100a2578063d539139311610071578063d53913931461056f578063d547741f1461058d578063dd62ed3e146105a9578063e63ab1e9146105d9576101da565b8063a217fddf146104c1578063a457c2d7146104df578063a9059cbb1461050f578063d310e49d1461053f576101da565b80639358928b116100de5780639358928b1461044b57806395d89b41146104695780639858befb146104875780639dc29fac146104a5576101da565b806370a08231146103e15780638456cb591461041157806391d148541461041b576101da565b80632f2ff15d1161017c5780633f4ba83a1161014b5780633f4ba83a1461037f57806340c10f19146103895780635c975abb146103a557806361d027b3146103c3576101da565b80632f2ff15d146102f9578063313ce5671461031557806336568abe14610333578063395093511461034f576101da565b806318160ddd116101b857806318160ddd1461025d57806323b872dd1461027b578063248a9ca3146102ab578063282c51f3146102db576101da565b806301ffc9a7146101df57806306fdde031461020f578063095ea7b31461022d575b600080fd5b6101f960048036038101906101f49190611d02565b6105f7565b6040516102069190611d4a565b60405180910390f35b610217610671565b6040516102249190611df5565b60405180910390f35b61024760048036038101906102429190611eab565b610703565b6040516102549190611d4a565b60405180910390f35b610265610726565b6040516102729190611efa565b60405180910390f35b61029560048036038101906102909190611f15565b610730565b6040516102a29190611d4a565b60405180910390f35b6102c560048036038101906102c09190611f9e565b61075f565b6040516102d29190611fda565b60405180910390f35b6102e361077f565b6040516102f09190611fda565b60405180910390f35b610313600480360381019061030e9190611ff5565b6107a3565b005b61031d6107c4565b60405161032a9190612051565b60405180910390f35b61034d60048036038101906103489190611ff5565b6107cd565b005b61036960048036038101906103649190611eab565b610850565b6040516103769190611d4a565b60405180910390f35b610387610887565b005b6103a3600480360381019061039e9190611eab565b6108bc565b005b6103ad6108f5565b6040516103ba9190611d4a565b60405180910390f35b6103cb61090c565b6040516103d8919061207b565b60405180910390f35b6103fb60048036038101906103f69190612096565b610930565b6040516104089190611efa565b60405180910390f35b610419610978565b005b61043560048036038101906104309190611ff5565b6109ad565b6040516104429190611d4a565b60405180910390f35b610453610a18565b6040516104609190611efa565b60405180910390f35b610471610a5a565b60405161047e9190611df5565b60405180910390f35b61048f610aec565b60405161049c9190611efa565b60405180910390f35b6104bf60048036038101906104ba9190611eab565b610b1c565b005b6104c9610b55565b6040516104d69190611fda565b60405180910390f35b6104f960048036038101906104f49190611eab565b610b5c565b6040516105069190611d4a565b60405180910390f35b61052960048036038101906105249190611eab565b610bd3565b6040516105369190611d4a565b60405180910390f35b61055960048036038101906105549190612096565b610bf6565b6040516105669190611efa565b60405180910390f35b610577610c3f565b6040516105849190611fda565b60405180910390f35b6105a760048036038101906105a29190611ff5565b610c63565b005b6105c360048036038101906105be91906120c3565b610c84565b6040516105d09190611efa565b60405180910390f35b6105e1610d0b565b6040516105ee9190611fda565b60405180910390f35b60007f7965db0b000000000000000000000000000000000000000000000000000000007bffffffffffffffffffffffffffffffffffffffffffffffffffffffff1916827bffffffffffffffffffffffffffffffffffffffffffffffffffffffff1916148061066a575061066982610d2f565b5b9050919050565b60606003805461068090612132565b80601f01602080910402602001604051908101604052809291908181526020018280546106ac90612132565b80156106f95780601f106106ce576101008083540402835291602001916106f9565b820191906000526020600020905b8154815290600101906020018083116106dc57829003601f168201915b5050505050905090565b60008061070e610d99565b905061071b818585610da1565b600191505092915050565b6000600254905090565b60008061073b610d99565b9050610748858285610f6a565b610753858585610ff6565b60019150509392505050565b600060056000838152602001908152602001600020600101549050919050565b7f3c11d16cbaffd01df69ce1c404f6340ee057498f5f00246190ea54220576a84881565b6107ac8261075f565b6107b58161126c565b6107bf8383611280565b505050565b60006012905090565b6107d5610d99565b73ffffffffffffffffffffffffffffffffffffffff168173ffffffffffffffffffffffffffffffffffffffff1614610842576040517f08c379a0000000000000000000000000000000000000000000000000000000008152600401610839906121d5565b60405180910390fd5b61084c8282611361565b5050565b60008061085b610d99565b905061087c81858561086d8589610c84565b6108779190612224565b610da1565b600191505092915050565b7f65d7a28e3265b37a6474929f336521b332c1681b933f6cb9f3376673440d862a6108b18161126c565b6108b9611443565b50565b7f9f2df0fed2c77648de5860a4cc508cd0818c85b8b8a1ab4ceeef8d981c8956a66108e68161126c565b6108f083836114a6565b505050565b6000600660009054906101000a900460ff16905090565b7f000000000000000000000000000000000000000000000000000000000000000081565b60008060008373ffffffffffffffffffffffffffffffffffffffff1673ffffffffffffffffffffffffffffffffffffffff168152602001908152602001600020549050919050565b7f65d7a28e3265b37a6474929f336521b332c1681b933f6cb9f3376673440d862a6109a28161126c565b6109aa6115fc565b50565b60006005600084815260200190815260200160002060000160008373ffffffffffffffffffffffffffffffffffffffff1673ffffffffffffffffffffffffffffffffffffffff16815260200190815260200160002060009054906101000a900460ff16905092915050565b6000610a437f0000000000000000000000000000000000000000000000000000000000000000610930565b610a4b610726565b610a559190612258565b905090565b606060048054610a6990612132565b80601f0160208091040260200160405190810160405280929190818152602001828054610a9590612132565b8015610ae25780601f10610ab757610100808354040283529160200191610ae2565b820191906000526020600020905b815481529060010190602001808311610ac557829003601f168201915b5050505050905090565b6000610b177f0000000000000000000000000000000000000000000000000000000000000000610930565b905090565b7f3c11d16cbaffd01df69ce1c404f6340ee057498f5f00246190ea54220576a848610b468161126c565b610b50838361165f565b505050565b6000801b81565b600080610b67610d99565b90506000610b758286610c84565b905083811015610bba576040517f08c379a0000000000000000000000000000000000000000000000000000000008152600401610bb1906122fe565b60405180910390fd5b610bc78286868403610da1565b60019250505092915050565b600080610bde610d99565b9050610beb818585610ff6565b600191505092915050565b6000600760008373ffffffffffffffffffffffffffffffffffffffff1673ffffffffffffffffffffffffffffffffffffffff168152602001908152602001600020549050919050565b7f9f2df0fed2c77648de5860a4cc508cd0818c85b8b8a1ab4ceeef8d981c8956a681565b610c6c8261075f565b610c758161126c565b610c7f8383611361565b505050565b6000600160008473ffffffffffffffffffffffffffffffffffffffff1673ffffffffffffffffffffffffffffffffffffffff16815260200190815260200160002060008373ffffffffffffffffffffffffffffffffffffffff1673ffffffffffffffffffffffffffffffffffffffff16815260200190815260200160002054905092915050565b7f65d7a28e3265b37a6474929f336521b332c1681b933f6cb9f3376673440d862a81565b60007f01ffc9a7000000000000000000000000000000000000000000000000000000007bffffffffffffffffffffffffffffffffffffffffffffffffffffffff1916827bffffffffffffffffffffffffffffffffffffffffffffffffffffffff1916149050919050565b600033905090565b600073ffffffffffffffffffffffffffffffffffffffff168373ffffffffffffffffffffffffffffffffffffffff1603610e10576040517f08c379a0000000000000000000000000000000000000000000000000000000008152600401610e0790612390565b60405180910390fd5b600073ffffffffffffffffffffffffffffffffffffffff168273ffffffffffffffffffffffffffffffffffffffff1603610e7f576040517f08c379a0000000000000000000000000000000000000000000000000000000008152600401610e7690612422565b60405180910390fd5b80600160008573ffffffffffffffffffffffffffffffffffffffff1673ffffffffffffffffffffffffffffffffffffffff16815260200190815260200160002060008473ffffffffffffffffffffffffffffffffffffffff1673ffffffffffffffffffffffffffffffffffffffff168152602001908152602001600020819055508173ffffffffffffffffffffffffffffffffffffffff168373ffffffffffffffffffffffffffffffffffffffff167f8c5be1e5ebec7d5bd14f71427d1e84f3dd0314c0f7b2291e5b200ac8c7c3b92583604051610f5d9190611efa565b60405180910390a3505050565b6000610f768484610c84565b90507fffffffffffffffffffffffffffffffffffffffffffffffffffffffffffffffff8114610ff05781811015610fe2576040517f08c379a0000000000000000000000000000000000000000000000000000000008152600401610fd99061248e565b60405180910390fd5b610fef8484848403610da1565b5b50505050565b600073ffffffffffffffffffffffffffffffffffffffff168373ffffffffffffffffffffffffffffffffffffffff1603611065576040517f08c379a000000000000000000000000000000000000000000000000000000000815260040161105c90612520565b60405180910390fd5b600073ffffffffffffffffffffffffffffffffffffffff168273ffffffffffffffffffffffffffffffffffffffff16036110d4576040517f08c379a00000000000000000000000000000000000000000000000000000000081526004016110cb906125b2565b60405180910390fd5b6110df83838361182c565b60008060008573ffffffffffffffffffffffffffffffffffffffff1673ffffffffffffffffffffffffffffffffffffffff16815260200190815260200160002054905081811015611165576040517f08c379a000000000000000000000000000000000000000000000000000000000815260040161115c90612644565b60405180910390fd5b8181036000808673ffffffffffffffffffffffffffffffffffffffff1673ffffffffffffffffffffffffffffffffffffffff16815260200190815260200160002081905550816000808573ffffffffffffffffffffffffffffffffffffffff1673ffffffffffffffffffffffffffffffffffffffff168152602001908152602001600020600082825401925050819055508273ffffffffffffffffffffffffffffffffffffffff168473ffffffffffffffffffffffffffffffffffffffff167fddf252ad1be2c89b69c2b068fc378daa952ba7f163c4a11628f55a4df523b3ef846040516112539190611efa565b60405180910390a3611266848484611844565b50505050565b61127d81611278610d99565b61191a565b50565b61128a82826109ad565b61135d5760016005600084815260200190815260200160002060000160008373ffffffffffffffffffffffffffffffffffffffff1673ffffffffffffffffffffffffffffffffffffffff16815260200190815260200160002060006101000a81548160ff021916908315150217905550611302610d99565b73ffffffffffffffffffffffffffffffffffffffff168173ffffffffffffffffffffffffffffffffffffffff16837f2f8788117e7eff1d82e926ec794901d17c78024a50270940304540a733656f0d60405160405180910390a45b5050565b61136b82826109ad565b1561143f5760006005600084815260200190815260200160002060000160008373ffffffffffffffffffffffffffffffffffffffff1673ffffffffffffffffffffffffffffffffffffffff16815260200190815260200160002060006101000a81548160ff0219169083151502179055506113e4610d99565b73ffffffffffffffffffffffffffffffffffffffff168173ffffffffffffffffffffffffffffffffffffffff16837ff6391f5c32d9c69d2a47ea670b442974b53935d1edc7fd64eb21e047a839171b60405160405180910390a45b5050565b61144b61199f565b6000600660006101000a81548160ff0219169083151502179055507f5db9ee0a495bf2e6ff9c91a7834c1ba4fdd244a5e8aa4e537bd38aeae4b073aa61148f610d99565b60405161149c919061207b565b60405180910390a1565b600073ffffffffffffffffffffffffffffffffffffffff168273ffffffffffffffffffffffffffffffffffffffff1603611515576040517f08c379a000000000000000000000000000000000000000000000000000000000815260040161150c906126b0565b60405180910390fd5b6115216000838361182c565b80600260008282546115339190612224565b92505081905550806000808473ffffffffffffffffffffffffffffffffffffffff1673ffffffffffffffffffffffffffffffffffffffff168152602001908152602001600020600082825401925050819055508173ffffffffffffffffffffffffffffffffffffffff16600073ffffffffffffffffffffffffffffffffffffffff167fddf252ad1be2c89b69c2b068fc378daa952ba7f163c4a11628f55a4df523b3ef836040516115e49190611efa565b60405180910390a36115f860008383611844565b5050565b6116046119e8565b6001600660006101000a81548160ff0219169083151502179055507f62e78cea01bee320cd4e420270b5ea74000d11b0c9f74754ebdbfc544b05a258611648610d99565b604051611655919061207b565b60405180910390a1565b600073ffffffffffffffffffffffffffffffffffffffff168273ffffffffffffffffffffffffffffffffffffffff16036116ce576040517f08c379a00000000000000000000000000000000000000000000000000000000081526004016116c590612742565b60405180910390fd5b6116da8260008361182c565b60008060008473ffffffffffffffffffffffffffffffffffffffff1673ffffffffffffffffffffffffffffffffffffffff16815260200190815260200160002054905081811015611760576040517f08c379a0000000000000000000000000000000000000000000000000000000008152600401611757906127d4565b60405180910390fd5b8181036000808573ffffffffffffffffffffffffffffffffffffffff1673ffffffffffffffffffffffffffffffffffffffff1681526020019081526020016000208190555081600260008282540392505081905550600073ffffffffffffffffffffffffffffffffffffffff168373ffffffffffffffffffffffffffffffffffffffff167fddf252ad1be2c89b69c2b068fc378daa952ba7f163c4a11628f55a4df523b3ef846040516118139190611efa565b60405180910390a361182783600084611844565b505050565b6118346119e8565b61183f838383611a32565b505050565b600073ffffffffffffffffffffffffffffffffffffffff168373ffffffffffffffffffffffffffffffffffffffff16141580156118ae5750600073ffffffffffffffffffffffffffffffffffffffff168273ffffffffffffffffffffffffffffffffffffffff1614155b1561190a5780600760008473ffffffffffffffffffffffffffffffffffffffff1673ffffffffffffffffffffffffffffffffffffffff16815260200190815260200160002060008282546119029190612224565b925050819055505b611915838383611a37565b505050565b61192482826109ad565b61199b5761193181611a3c565b61193f8360001c6020611a69565b6040516020016119509291906128c8565b6040516020818303038152906040526040517f08c379a00000000000000000000000000000000000000000000000000000000081526004016119929190611df5565b60405180910390fd5b5050565b6119a76108f5565b6119e6576040517f08c379a00000000000000000000000000000000000000000000000000000000081526004016119dd9061294e565b60405180910390fd5b565b6119f06108f5565b15611a30576040517f08c379a0000000000000000000000000000000000000000000000000000000008152600401611a27906129ba565b60405180910390fd5b565b505050565b505050565b6060611a628273ffffffffffffffffffffffffffffffffffffffff16601460ff16611a69565b9050919050565b606060006002836002611a7c91906129da565b611a869190612224565b67ffffffffffffffff811115611a9f57611a9e612a1c565b5b6040519080825280601f01601f191660200182016040528015611ad15781602001600182028036833780820191505090505b5090507f300000000000000000000000000000000000000000000000000000000000000081600081518110611b0957611b08612a4b565b5b60200101907effffffffffffffffffffffffffffffffffffffffffffffffffffffffffffff1916908160001a9053507f780000000000000000000000000000000000000000000000000000000000000081600181518110611b6d57611b6c612a4b565b5b60200101907effffffffffffffffffffffffffffffffffffffffffffffffffffffffffffff1916908160001a90535060006001846002611bad91906129da565b611bb79190612224565b90505b6001811115611c57577f3031323334353637383961626364656600000000000000000000000000000000600f861660108110611bf957611bf8612a4b565b5b1a60f81b828281518110611c1057611c0f612a4b565b5b60200101907effffffffffffffffffffffffffffffffffffffffffffffffffffffffffffff1916908160001a905350600485901c945080611c5090612a7a565b9050611bba565b5060008414611c9b576040517f08c379a0000000000000000000000000000000000000000000000000000000008152600401611c9290612aef565b60405180910390fd5b8091505092915050565b600080fd5b60007fffffffff0000000000000000000000000000000000000000000000000000000082169050919050565b611cdf81611caa565b8114611cea57600080fd5b50565b600081359050611cfc81611cd6565b92915050565b600060208284031215611d1857611d17611ca5565b5b6000611d2684828501611ced565b91505092915050565b60008115159050919050565b611d4481611d2f565b82525050565b6000602082019050611d5f6000830184611d3b565b92915050565b600081519050919050565b600082825260208201905092915050565b60005b83811015611d9f578082015181840152602081019050611d84565b60008484015250505050565b6000601f19601f8301169050919050565b6000611dc782611d65565b611dd18185611d70565b9350611de1818560208601611d81565b611dea81611dab565b840191505092915050565b60006020820190508181036000830152611e0f8184611dbc565b905092915050565b600073ffffffffffffffffffffffffffffffffffffffff82169050919050565b6000611e4282611e17565b9050919050565b611e5281611e37565b8114611e5d57600080fd5b50565b600081359050611e6f81611e49565b92915050565b6000819050919050565b611e8881611e75565b8114611e9357600080fd5b50565b600081359050611ea581611e7f565b92915050565b60008060408385031215611ec257611ec1611ca5565b5b6000611ed085828601611e60565b9250506020611ee185828601611e96565b9150509250929050565b611ef481611e75565b82525050565b6000602082019050611f0f6000830184611eeb565b92915050565b600080600060608486031215611f2e57611f2d611ca5565b5b6000611f3c86828701611e60565b9350506020611f4d86828701611e60565b9250506040611f5e86828701611e96565b9150509250925092565b6000819050919050565b611f7b81611f68565b8114611f8657600080fd5b50565b600081359050611f9881611f72565b92915050565b600060208284031215611fb457611fb3611ca5565b5b6000611fc284828501611f89565b91505092915050565b611fd481611f68565b82525050565b6000602082019050611fef6000830184611fcb565b92915050565b6000806040838503121561200c5761200b611ca5565b5b600061201a85828601611f89565b925050602061202b85828601611e60565b9150509250929050565b600060ff82169050919050565b61204b81612035565b82525050565b60006020820190506120666000830184612042565b92915050565b61207581611e37565b82525050565b6000602082019050612090600083018461206c565b92915050565b6000602082840312156120ac576120ab611ca5565b5b60006120ba84828501611e60565b91505092915050565b600080604083850312156120da576120d9611ca5565b5b60006120e885828601611e60565b92505060206120f985828601611e60565b9150509250929050565b7f4e487b7100000000000000000000000000000000000000000000000000000000600052602260045260246000fd5b6000600282049050600182168061214a57607f821691505b60208210810361215d5761215c612103565b5b50919050565b7f416363657373436f6e74726f6c3a2063616e206f6e6c792072656e6f756e636560008201527f20726f6c657320666f722073656c660000000000000000000000000000000000602082015250565b60006121bf602f83611d70565b91506121ca82612163565b604082019050919050565b600060208201905081810360008301526121ee816121b2565b9050919050565b7f4e487b7100000000000000000000000000000000000000000000000000000000600052601160045260246000fd5b600061222f82611e75565b915061223a83611e75565b9250828201905080821115612252576122516121f5565b5b92915050565b600061226382611e75565b915061226e83611e75565b9250828203905081811115612286576122856121f5565b5b92915050565b7f45524332303a2064656372656173656420616c6c6f77616e63652062656c6f7760008201527f207a65726f000000000000000000000000000000000000000000000000000000602082015250565b60006122e8602583611d70565b91506122f38261228c565b604082019050919050565b60006020820190508181036000830152612317816122db565b9050919050565b7f45524332303a20617070726f76652066726f6d20746865207a65726f2061646460008201527f7265737300000000000000000000000000000000000000000000000000000000602082015250565b600061237a602483611d70565b91506123858261231e565b604082019050919050565b600060208201905081810360008301526123a98161236d565b9050919050565b7f45524332303a20617070726f766520746f20746865207a65726f20616464726560008201527f7373000000000000000000000000000000000000000000000000000000000000602082015250565b600061240c602283611d70565b9150612417826123b0565b604082019050919050565b6000602082019050818103600083015261243b816123ff565b9050919050565b7f45524332303a20696e73756666696369656e7420616c6c6f77616e6365000000600082015250565b6000612478601d83611d70565b915061248382612442565b602082019050919050565b600060208201905081810360008301526124a78161246b565b9050919050565b7f45524332303a207472616e736665722066726f6d20746865207a65726f20616460008201527f6472657373000000000000000000000000000000000000000000000000000000602082015250565b600061250a602583611d70565b9150612515826124ae565b604082019050919050565b60006020820190508181036000830152612539816124fd565b9050919050565b7f45524332303a207472616e7366657220746f20746865207a65726f206164647260008201527f6573730000000000000000000000000000000000000000000000000000000000602082015250565b600061259c602383611d70565b91506125a782612540565b604082019050919050565b600060208201905081810360008301526125cb8161258f565b9050919050565b7f45524332303a207472616e7366657220616d6f756e742065786365656473206260008201527f616c616e63650000000000000000000000000000000000000000000000000000602082015250565b600061262e602683611d70565b9150612639826125d2565b604082019050919050565b6000602082019050818103600083015261265d81612621565b9050919050565b7f45524332303a206d696e7420746f20746865207a65726f206164647265737300600082015250565b600061269a601f83611d70565b91506126a582612664565b602082019050919050565b600060208201905081810360008301526126c98161268d565b9050919050565b7f45524332303a206275726e2066726f6d20746865207a65726f2061646472657360008201527f7300000000000000000000000000000000000000000000000000000000000000602082015250565b600061272c602183611d70565b9150612737826126d0565b604082019050919050565b6000602082019050818103600083015261275b8161271f565b9050919050565b7f45524332303a206275726e20616d6f756e7420657863656564732062616c616e60008201527f6365000000000000000000000000000000000000000000000000000000000000602082015250565b60006127be602283611d70565b91506127c982612762565b604082019050919050565b600060208201905081810360008301526127ed816127b1565b9050919050565b600081905092915050565b7f416363657373436f6e74726f6c3a206163636f756e7420000000000000000000600082015250565b60006128356017836127f4565b9150612840826127ff565b601782019050919050565b600061285682611d65565b61286081856127f4565b9350612870818560208601611d81565b80840191505092915050565b7f206973206d697373696e6720726f6c6520000000000000000000000000000000600082015250565b60006128b26011836127f4565b91506128bd8261287c565b601182019050919050565b60006128d382612828565b91506128df828561284b565b91506128ea826128a5565b91506128f6828461284b565b91508190509392505050565b7f5061757361626c653a206e6f7420706175736564000000000000000000000000600082015250565b6000612938601483611d70565b915061294382612902565b602082019050919050565b600060208201905081810360008301526129678161292b565b9050919050565b7f5061757361626c653a2070617573656400000000000000000000000000000000600082015250565b60006129a4601083611d70565b91506129af8261296e565b602082019050919050565b600060208201905081810360008301526129d381612997565b9050919050565b60006129e582611e75565b91506129f083611e75565b92508282026129fe81611e75565b91508282048414831517612a1557612a146121f5565b5b5092915050565b7f4e487b7100000000000000000000000000000000000000000000000000000000600052604160045260246000fd5b7f4e487b7100000000000000000000000000000000000000000000000000000000600052603260045260246000fd5b6000612a8582611e75565b915060008203612a9857612a976121f5565b5b600182039050919050565b7f537472696e67733a20686578206c656e67746820696e73756666696369656e74600082015250565b6000612ad9602083611d70565b9150612ae482612aa3565b602082019050919050565b60006020820190508181036000830152612b0881612acc565b905091905056fea2646970667358221220d289866b5e52f1a8978d8f6b0e1dec58c1198af20391f5e634de31c190b2f24864736f6c634300081c0033",
  "linkReferences": {},
  "deployedLinkReferences": {}
}